:020000040800F2
:1000000000000624E1210008292000083120000812
:1000100039200008412000084920000800000000A5
:100020000000000000000000000000005120000857
:100030005F200008000000006D2000087B20000801
:100040003522000835220008352200083522000834
:100050003522000835220008352200083522000824
:100060003522000835220008352200083522000814
:100070003522000835220008352200083522000804
:1000800035220008352200083522000835220008F4
:1000900035220008352200083522000835220008E4
:1000A00035220008352200083522000835220008D4
:1000B00035220008352200083522000835220008C4
:1000C00035220008352200083522000835220008B4
:1000D00035220008352200083522000835220008A4
:1000E00035220008352200080000000035220008F3
:1000F0003522000835220008352200083522000884
:100100003522000835220008352200083522000873
:100110003522000835220008352200083522000863
:100120003522000835220008352200083522000853
:100130003522000835220008352200083522000843
:1001400000000000000000000000000000000000AF
:100150003522000835220008352200083522000823
:100160003522000835220008352200083522000813
:100170003522000835220008352200080000000062
:1001800035220008352200083522000835220008F3
:1001900035220008352200083522000835220008E3
:1001A00035220008352200083522000835220008D3
:1001B00035220008352200083522000835220008C3
:1001C00035220008352200083522000835220008B3
:1001D00035220008352200083522000835220008A3
:1001E0003522000835220008352200083522000893
:1001F0003522000835220008352200083522000883
:100200003522000835220008352200083522000872
:100210003522000835220008352200083522000862
:1002200035220008352200083522000800000000B1
:1002300035220008352200080000000035220008A1
:100240003522000835220008352200083522000832
:100250003522000835220008352200083522000822
:100260003522000835220008352200083522000812
:100270003522000835220008352200080000000061
:100280003522000835220008352200080000000051
:08029000000000003522000807
:1002980010B5054C237833B9044B13B10448AFF3B8
:1002A80000800123237010BDBC0000240000000062
:1002B8009853070808B5034B1BB103490348AFF32C
:1002C800008008BD00000000C00000249853070803
:1002D8007BB972B90029BEBF00204FF0004106E08B
:1002E80008BF00281CBF6FF000414FF0FF3000F03E
:1002F800D3B9ADF1080C6DE904CE002909DB002B58
:100308001ADB00F04DF8DDF804E0DDE9022304B063
:100318007047404261EB4101002B1BDB00F040F8C5
:10032800DDF804E0DDE9022304B0404261EB41015D
:10033800524263EB43037047524263EB430300F0BE
:100348002FF8DDF804E0DDE9022304B0404261EB58
:1003580041017047524263EB430300F021F8DDF896
:1003680004E0DDE9022304B0524263EB4303704723
:1003780053B94AB9002908BF00281CBF4FF0FF3104
:100388004FF0FF3000F088B9ADF1080C6DE904CEEC
:1003980000F006F8DDF804E0DDE9022304B0704758
:1003A8002DE9F047089D0F4604468C46002B48D19E
:1003B8008A42164661D9B2FA82F34BB1C3F12002E0
:1003C80001FA03FC20FA02F29E4042EA0C0C9C401F
:1003D8004FEA164EB7B2BCFBFEF1220C0EFB11CC55
:1003E80042EA0C4201FB07F0904209D9B21801F128
:1003F800FF3C80F0EE80904240F2EB8002393244BC
:10040800121AA4B2B2FBFEF00EFB102244EA024418
:1004180000FB07F7A74209D9341900F1FF3280F031
:10042800DA80A74240F2D7803444023840EA0140DB
:10043800E41B00211DB1DC400023C5E90043BDE8F1
:10044800F0878B4206D90DB1C5E9000100210846A5
:10045800BDE8F087B3FA83F1002948D1BB4202D343
:10046800824200F20781841A67EB03020120944656
:10047800002DE4D0C5E9004CE1E7002A00F09280A5
:10048800B2FA82F3002B40F0A8808A1A4FEA164E7F
:100498001FFA86FC0121200CB2FBFEF70EFB172287
:1004A80040EA02420CFB07F0904207D9B21807F164
:1004B800FF3802D2904200F2E2804746121AA4B2F4
:1004C800B2FBFEF00EFB102244EA02440CFB00FCD7
:1004D800A44507D9341900F1FF3202D2A44500F22D
:1004E800CB801046A4EB0C0440EA0740A2E7C1F118
:1004F80020068B4022FA06FC4CEA030C07FA01F4AA
:1005080020FA06F3F7404FEA1C49234300FA01F8A2
:100518001FFA8CFEB7FBF9F01C0C09FB107744EAB4
:10052800074400FB0EF7A74202FA01F20AD91CEBB6
:10053800040400F1FF3A80F09B80A74240F29880C3
:1005480002386444E41B9FB2B4FBF9F309FB13447B
:1005580047EA044403FB0EFEA64509D91CEB040434
:1005680003F1FF3780F08280A6457FD9023B6444BF
:1005780043EA0040A4EB0E04A0FB02E7BC4273462A
:10058800B94663D360D05DB1B8EB030264EB0904EC
:1005980004FA06F622FA01F31E43CC40C5E90064CA
:1005A80000214CE76208480842EAC1710B0C43EA93
:1005B80000438AB242EA0342B3FBF6F1E407B446C9
:1005C8003746B6461F23B0FBF6F0D21B41EA00417E
:1005D80061E7614614E7104628E7C3F1200120FAD5
:1005E80001F29E4027FA01F19F403A434FEA164E26
:1005F8001FFA86FCB1FBFEF70EFB1710110C41EA3F
:10060800004107FB0CF8884504FA03F43AD971183D
:1006180007F1FF3001D288451FD8A1EB0801B1FBD3
:10062800FEF808FB0CF70EFB181192B242EA0142E1
:10063800BA422FD2B21808F1FF31C6D2BA42C4D298
:10064800A8F102013244C0E7F0459CD2BEEB020398
:1006580067EB0C070138B94695E7A6EB0808414453
:10066800B81EB1FBFEF808FB0CF7DCE73B467FE75A
:10067800504667E70846FBE63444023832E7023F53
:1006880032441BE7A1EB08013846B1FBFEF808FB32
:100698000CF7C8E7414698E7704700BF80B588B0B7
:1006A80000AF786007F10C0300221A605A609A6064
:1006B800DA600023FB61012001F002FF0123FB60E7
:1006C80010233B6101237B610023BB6107F10C030D
:1006D8004FF0FF321946786808F0E0FE012001F07B
:1006E800EFFE0223FB6010233B6101237B610023A3
:1006F800BB6107F10C034FF0FF321946786808F028
:10070800CDFE0323FB6010233B6108237B6100239C
:10071800BB6107F10C034FF0FF321946786808F007
:10072800BDFE4FF40873FB610423FB6010233B619B
:1007380001237B61FB69BB6107F10C034FF0FF32BA
:100748001946786808F0AAFE40F2F921786808F09E
:10075800DAFE00BF2037BD4680BD000080B590B0EE
:1007680000AF07F1080338220021184674F0C2FDD3
:100778003B1D00210A461A800A469A704FF480737E
:100788003B629F23BB6000237B620023BB624FF068
:100798008073FB620023FB6103233B6300237B63BD
:1007A8000023BB630023FB6307F108034FF0FF320C
:1007B80019460F4803F054FA0346002B01D00023D2
:1007C80012E03B1D4FF0FF321946094803F0A6FA24
:1007D8000346002B01D0002306E03B791A047B79FD
:1007E8001B021343BA79134318464037BD4680BDF0
:1007F800D401002480B590B000AF07F10803382277
:100808000021184674F076FD3B4600221A605A60B3
:100818004FF480733B62EB23BB604FF440637B6211
:100828004FF400537B614FF44043BB620023BB612C
:10083800F0233B614FF04073FB620423FB6100230C
:100848007B630023BB630023FB6300237B603A4682
:1008580007F108031946064803F0FDFA0346002B82
:1008680001D000F03BFE00BF4037BD4680BD00BF51
:10087800D401002480B58AB002AFF860B9607A600C
:10088800BB689A68BB681B68D31A0133FB61BB68F5
:10089800DA68BB685B68D31A0133BB61BB685B6805
:1008A8001A464FF4487302FB03F3BA6812681344FC
:1008B80003F1C0435B007B61FB69C3F548731A46CB
:1008C800164BDA60154B00225A64144B00229A65C5
:1008D800124801F081FF0121104802F0F5F879680B
:1008E800FA69BB69009313467A690C4801F0D8FF8E
:1008F8004FF0FF31094801F0FEFF00BF084B1B68AD
:1009080003F00103002BF9D1BFF34F8F00BFF86844
:100918001AF034F800BF2037BD4680BD9408002483
:100928000010005280B586B002AF49F025FA114890
:1009380057F0F2FD104BFB60104BBB604FF4F071A9
:100948004FF4487019F006FD78607B68002B0DD0D5
:10095800002300934FF47A43BA68F968786819F06D
:100968002DFF0749786819F0DDFF00E000BF103758
:10097800BD4680BDB12400080000062400000724FD
:100988007D08000880B5ADF5825D00AF00F030F954
:1009980001F004FD00F0B0F800F094FC00F03EFC1B
:1009A80000F052FA00F060FD00F0E2FA00F00CFBF3
:1009B80000F03EFB00F0B4FB00F0FEFB00F004FA90
:1009C80070F084FD0021444808F07EFE424B1B680D
:1009D80040F277125A63FFF7C1FE41F238033B44F5
:1009E8001860FFF707FF3D4A00214FF0404074F0C0
:1009F80081FCFFF797FF3A4B1B78002B44D001226C
:100A08003849394873F0B0FA034641F237023A449C
:100A1800137041F237033B441B78002B34D10CF0A0
:100A28008DFA3B4601223149184673F0E3FA034632
:100A380041F236023A44137041F236033B441B78C4
:100A4800002B21D13B46184674F00DF81AF041FCF2
:100A58000346184662F016F841F230033B4418602A
:100A6800234941F230033B44186862F01FF841F211
:100A780030033B44186812F0DCFA002017F067FCDA
:100A880041F2883001F01CFD70F03AFC70F00AFD6C
:100A980001F07AFC01F008FD41F23C033B44186088
:100AA80050F0C6FE052001F00BFD01F0FDFC0246EA
:100AB80041F23C033B441B68D31AB3F5FA7FEFD3EA
:100AC80001F0F2FC41F23C033B44186080210948E4
:100AD80002F039FBE4E700BF9C02002400B80B00D9
:100AE800FC080024500B0424540B04248C5C0708D5
:100AF8009C5C0708001C025880B59CB000AF07F149
:100B080024034C220021184674F0F4FB3B1D2022DC
:100B18000021184674F0EEFB022002F0E3FF0023E8
:100B28003B60314B9B69304A43F4404393612E4B01
:100B38009B6903F440433B602C4BDB6A2B4A43F030
:100B48000103D362294BDB6A03F001033B603B6876
:100B580000BF254B9B6903F40053B3F5005FF8D140
:100B680021237B624FF48033BB620123FB630223A2
:100B7800BB640223FB6405233B65C0237B6502231A
:100B8800BB650223FB6502233B6608237B660023C3
:100B9800BB660023FB6607F12403184603F09AFBA3
:100BA8000346002B01D000F099FC3F237B60032310
:100BB800BB600023FB6008233B6140237B6140232B
:100BC800BB614FF48063FB6140233B623B1D042102
:100BD800184603F0D9FF0346002B01D000F07EFC35
:100BE80000BF7037BD4680BD004802580004005859
:100BF80080B584B000AF3B4600221A605A609A6004
:100C0800DA6001F071FD01233B7000237B704FF027
:100C180000637B6014233B7200237B720023BB724A
:100C28000623FB7200233B7300237B730123BB73F2
:100C38000023FB733B46184601F08EFD01233B70F1
:100C480001237B704FF000537B6010233B7200231D
:100C58007B720123BB720323FB7201233B730023C6
:100C68007B730023BB730023FB733B46184601F0DC
:100C780073FD01233B7002237B704FF010537B60A0
:100C880012233B72C0237B720123BB720323FB72C6
:100C980001233B7300237B730123BB730023FB7386
:100CA8003B46184601F058FD01233B7003237B7037
:100CB8004FF040537B6012233B7200237B72012369
:100CC800BB720323FB7201233B7300237B73012355
:100CD800BB730023FB733B46184601F03DFD01231F
:100CE8003B7004237B70374B7B6010233B720023DF
:100CF8007B720123BB720323FB7201233B73002326
:100D08007B730023BB730023FB733B46184601F03B
:100D180023FD01233B7005237B704FF060537B60FC
:100D28000F233B7200237B720123BB720323FB72E8
:100D380001233B7300237B730123BB730023FB73E5
:100D48003B46184601F008FD01233B7006237B70E3
:100D58004FF080437B601C233B7200237B7200238F
:100D6800BB720323FB7201233B7301237B730023B4
:100D7800BB730123FB733B46184601F0EDFC0123CE
:100D88003B7007237B704FF040437B6018233B7216
:100D980000237B720123BB720323FB7201233B7385
:100DA80000237B730023BB730023FB733B46184669
:100DB80001F0D2FC042001F0AFFC00BF1037BD46A3
:100DC80080BD00BF0000062480B500AF1B4B1C4A45
:100DD8001A601A4B1B4A5A60184B00229A60174B2C
:100DE8000122DA60154B00221A61144B00225A6165
:100DF800124B00229A61114B0022DA610F4B00223C
:100E08001A620E4802F0BAF90346002B01D000F02E
:100E180065FB0021094802F04DFA0346002B01D07A
:100E280000F05CFB0021054802F08FFA0346002B16
:100E380001D000F053FB00BF80BD00BFD8000024E4
:100E480000540040B175703080B58EB000AF3B1DC6
:100E580034220021184674F04DFA424BD3F8E4309E
:100E6800404A43F00803C2F8E4303E4BD3F8E4307C
:100E780003F008033B603B683B4B3C4A1A603A4B23
:100E880000225A60384B00229A60374B0022DA6001
:100E9800354B00221A61344B09225A61324B3722F2
:100EA800DA61314B40F257325A622F4B40F22942F5
:100EB800DA622D4B09229A612B4B2A221A622A4B9D
:100EC80040F20A229A62284B4FF408721A63264BA2
:100ED800002283F83420244B002283F83520224B4B
:100EE800002283F83620204802F07BFA0346002BC4
:100EF80001D000F0F3FA00237B604FF44873BB6025
:100F08000023FB604FF4F0733B6102237B614FF0D9
:100F18004043BB62FF23BB610023FB614FF4806346
:100F28003B6205237B624FF44873FB624FF4F07316
:100F38003B63002387F83430002387F835300023DB
:100F480087F836303B1D00221946074802F0E6FABA
:100F58000346002B01D000F0C1FA00BF3837BD4668
:100F680080BD00BF004402582C010024001000502E
:100F780080B500AF124B134A1A60114B01225A6018
:100F88000F4B04229A600E4B1022DA600C4B16228B
:100F98001A610B4B4FF480725A61094B00229A6117
:100FA800074B0022DA61064B00221A62044802F05D
:100FB800E3FD0346002B01D000F090FA00BF80BD8E
:100FC800D40100240050005280B500AF154B164ADA
:100FD8001A60144B00225A60124B00229A60114B7F
:100FE8000022DA600F4B4FF400321A610D4B1022C9
:100FF8005A610C4806F052FE0346002B03D00B4BF7
:1010080000221A700DE04FF48041064807F01EFDDB
:101018000346002B02D0034B0022DA60034B012267
:101028001A7080BD2002002400700052FC080024C1
:1010380080B58EB000AF07F1280300221A605A600D
:101048009A60DA6007F11C0300221A605A609A60FD
:101058003B4600221A605A609A60DA601A615A6147
:101068009A612D4B2D4A1A602B4BEF225A602A4B5E
:1010780000229A60284B40F2F312DA60264B0022D5
:101088001A61254B80229A61234808F064FA0346C6
:10109800002B01D000F022FA4FF48053BB6207F115
:1010A800280319461C4808F031FD0346002B01D0DF
:1010B80000F014FA184808F0A5FA0346002B01D0EE
:1010C80000F00CFA0023FB6100237B6207F11C038C
:1010D8001946114809F088FA0346002B01D000F0A0
:1010E800FDF960233B6040F2F3137B600023BB6093
:1010F80000233B613B4600221946074808F0F2FBF3
:101108000346002B01D000F0E9F9034800F0B2FDD6
:1011180000BF3837BD4680BD9C020024001800403F
:1011280080B500AF224B234A1A60214B4FF4E132BD
:101138005A601F4B00229A601D4B0022DA601C4B3C
:1011480000221A611A4B0C225A61194B00229A612B
:10115800174B0022DA61164B00221A62144B002248
:101168005A62134B00229A62114809F0CBFA0346DF
:10117800002B01D000F0B2F900210D480AF0D3FA93
:101188000346002B01D000F0A9F9002108480AF015
:1011980008FB0346002B01D000F0A0F904480AF030
:1011A80089FA0346002B01D000F098F900BF80BDF2
:1011B800E80200240010014080B500AF154B164A24
:1011C8001A60144B09221A71124B0222DA71114B60
:1011D80000229A710F4B02225A720E4B00229A7209
:1011E8000C4B0022DA720B4B00221A73094B0022B7
:1011F8005A73084B00229A73064B0022DA7305488B
:1012080002F040FB0346002B01D000F067F900BF55
:1012180080BD00BF7C0300240000084080B588B072
:1012280000AF3B1D00221A605A609A60DA601A61AA
:101238005A619A61214B224A1A60204B00225A6057
:101248001E4B01229A601D4B0822DA601B4B1022AC
:101258001A611A4B40225A61184B4FF4C0729A61B6
:10126800164B0022DA61154B4FF400621A62134BD9
:101278004FF480525A62114B00229A6202237B601B
:101288000923BB600623FB6008233B6103237B61C2
:101298000323BB610323FB613B1D1946074808F084
:1012A800C1F80346002B01D000F018F90348FFF7F6
:1012B800F5F900BF2037BD4680BD00BF6008002497
:1012C8004041005280B58EB000AF07F124030022E0
:1012D8001A605A609A60DA601A615F4BD3F8E0309E
:1012E8005D4A43F01003C2F8E0305B4BD3F8E030BE
:1012F80003F010033B623B6A574BD3F8E030564A81
:1013080043F48073C2F8E030534BD3F8E03003F471
:101318008073FB61FB69504BD3F8E0304E4A43F0D1
:101328002003C2F8E0304C4BD3F8E03003F0200340
:10133800BB61BB69484BD3F8E030474A43F08003B0
:10134800C2F8E030444BD3F8E03003F080037B610F
:101358007B69414BD3F8E0303F4A43F00103C2F8C0
:10136800E0303D4BD3F8E03003F001033B613B69CB
:10137800394BD3F8E030384A43F00203C2F8E03082
:10138800354BD3F8E03003F00203FB60FB68324BC7
:10139800D3F8E030304A43F04003C2F8E0302E4B37
:1013A800D3F8E03003F04003BB60BB682A4BD3F8A6
:1013B800E030294A43F00803C2F8E030264BD3F85E
:1013C800E03003F008037B607B68234BD3F8E03000
:1013D800214A43F00403C2F8E0301F4BD3F8E03051
:1013E80003F004033B603B6800224FF410611B4884
:1013F80001F090FE00229021194801F08BFE002296
:101408000821184801F086FE4FF410637B6201231F
:10141800BB620023FB6200233B6307F124031946E8
:101428000E4801F0A5FC90237B6207F124031946BE
:101438000B4801F09DFC08237B620023BB6200235C
:10144800FB6207F124031946064801F091FC00BF2E
:101458003837BD4680BD00BF0044025800200258FE
:10146800001C02580018025880B500AF194B1A4AE0
:101478001A60184B00225A60164B02229A60154BCC
:101488000022DA60134B00225A64124B02229A643B
:10149800104B0022DA640F4B00221A650D4B002214
:1014A8005A650C4B00229A650A4B0022DA650948F6
:1014B80001F092F90346002B01D000F00FF801214A
:1014C800044801F001FB0346002B01D000F006F8A8
:1014D80000BF80BD940800240010005280B500AF02
:1014E80072B600BF8021044801F02DFE642000F090
:1014F800E7FF00BFF6E700BF001C025880B485B0C4
:1015080000AF78607B681B680B4A93420ED10B4B87
:10151800D3F8D430094A43F01003C2F8D430074B4B
:10152800D3F8D43003F01003FB60FB6800BF143716
:10153800BD465DF8047B7047001000520044025815
:1015480080B483B000AF0A4BD3F8F430084A43F0B4
:101558000203C2F8F430064BD3F8F43003F0020368
:101568007B607B6800BF0C37BD465DF8047B704725
:101578000044025880B5BAB000AF786007F1D403D0
:1015880000221A605A609A60DA601A6107F1100343
:10159800C0220021184673F0ADFE7B681B68274AFD
:1015A800934246D14FF008024FF00003C7E90423E5
:1015B8000023C7F8943007F11003184603F070FEB3
:1015C8000346002B01D0FFF789FF1D4BD3F8E0300D
:1015D8001B4A43F00203C2F8E030194BD3F8E0305D
:1015E80003F00203FB60FB684FF4C073C7F8D43004
:1015F8001223C7F8D8300023C7F8DC300023C7F817
:10160800E0300423C7F8E43007F1D40319460D4845
:1016180001F0AEFB0A4BD3F8E830094A43F4001353
:10162800C2F8E830064BD3F8E83003F40013BB6087
:10163800BB6800BFE837BD4680BD00BF005400400E
:10164800004402580004025880B5C0B000AF78606A
:1016580007F1EC0300221A605A609A60DA601A6196
:1016680007F12803C0220021184673F043FE7B6867
:101678001B68B14A934240F05A814FF000524FF034
:101688000003C7E90A2319233B65C0237B650223AE
:10169800BB650223FB6506233B6600237B660023AC
:1016A800BB660023FB6607F12803184603F0F8FD24
:1016B8000346002B01D0FFF711FFA04BD3F8E4300D
:1016C8009E4A43F00803C2F8E4309C4BD3F8E43058
:1016D80003F008037B627B6A984BD3F8E030974AA3
:1016E80043F01003C2F8E030944BD3F8E03003F035
:1016F80010033B623B6A914BD3F8E0308F4A43F4C6
:101708008073C2F8E0308D4BD3F8E03003F4807377
:10171800FB61FB69894BD3F8E030884A43F020032A
:10172800C2F8E030854BD3F8E03003F02003BB610A
:10173800BB69824BD3F8E030804A43F00103C2F81A
:10174800E0307E4BD3F8E03003F001037B617B6926
:101758007A4BD3F8E030794A43F08003C2F8E0309E
:10176800764BD3F8E03003F080033B613B69734B61
:10177800D3F8E030714A43F04003C2F8E0306F4BD1
:10178800D3F8E03003F04003FB60FB686B4BD3F801
:10179800E0306A4A43F00803C2F8E030674BD3F8F8
:1017A800E03003F00803BB60BB686023C7F8EC3087
:1017B8000223C7F8F0300023C7F8F4300323C7F832
:1017C800F8300E23C7F8FC3007F1EC0319465C48E3
:1017D80001F0CEFA4FF4C063C7F8EC300223C7F823
:1017E800F0300023C7F8F4300323C7F8F8300E238D
:1017F800C7F8FC3007F1EC031946524801F0B8FA73
:101808004FF48063C7F8EC300223C7F8F0300023A8
:10181800C7F8F4300323C7F8F8300E23C7F8FC30B4
:1018280007F1EC031946484801F0A2FA0423C7F867
:10183800EC300223C7F8F0300023C7F8F430032354
:10184800C7F8F8300E23C7F8FC3007F1EC03194647
:101858003E4801F08DFA4FF47F43C7F8EC3002237D
:10186800C7F8F0300023C7F8F4300323C7F8F8307E
:101878000E23C7F8FC3007F1EC031946344801F091
:1018880077FA47F2C003C7F8EC300223C7F8F03004
:101898000023C7F8F4300323C7F8F8300E23C7F83D
:1018A800FC3007F1EC0319462A4801F061FA4FF4BD
:1018B8008073C7F8EC300223C7F8F0300023C7F86C
:1018C800F4300323C7F8F8300D23C7F8FC3007F1CC
:1018D800EC0319461D4801F04BFAF723C7F8EC3022
:1018E8000223C7F8F0300023C7F8F4300323C7F801
:1018F800F8300E23C7F8FC3007F1EC0319461148FD
:1019080001F036FA4023C7F8EC300223C7F8F0306C
:101918000023C7F8F4300323C7F8F8300E23C7F8BC
:10192800FC3007F1EC0319460B4801F021FA00BF1F
:1019380007F58077BD4680BD00100050004402586E
:1019480000100258002002580014025800000258E3
:10195800001C025800180258000C025880B5BCB090
:1019680000AF786007F1DC0300221A605A609A60C1
:10197800DA601A6107F11803C0220021184673F0D3
:10198800B9FC7B681B68554A934240F0A3804FF02E
:1019980000724FF00003C7E9062300237B6607F1B6
:1019A8001803184603F07CFC0346002B01D0FFF710
:1019B80095FD4B4BD3F8D430494A43F48043C2F8E1
:1019C800D430474BD3F8D43003F480437B617B6930
:1019D800434BD3F8E030424A43F01003C2F8E030FA
:1019E8003F4BD3F8E03003F010033B613B693C4BBD
:1019F800D3F8E0303A4A43F00203C2F8E030384BFB
:101A0800D3F8E03003F00203FB60FB68344BD3F8F3
:101A1800E030334A43F00803C2F8E030304BD3F8E3
:101A2800E03003F00803BB60BB680423C7F8DC3070
:101A38000223C7F8E0300023C7F8E4300323C7F8CF
:101A4800E8300923C7F8EC3007F1DC0319462548CC
:101A580001F08EF90423C7F8DC300223C7F8E03020
:101A68000023C7F8E4300323C7F8E8300923C7F890
:101A7800EC3007F1DC0319461B4801F079F94FF403
:101A88006053C7F8DC300223C7F8E0300023C7F8FA
:101A9800E4300323C7F8E8300923C7F8EC3007F12E
:101AA800DC031946114801F063F94023C7F8DC301C
:101AB8000223C7F8E0300023C7F8E4300323C7F84F
:101AC800E8300A23C7F8EC3007F1DC03194606486A
:101AD80001F04EF900BFF037BD4680BD00500052FE
:101AE800004402580010025800040258000C025822
:101AF80080B5BCB000AF786007F1DC0300221A6043
:101B08005A609A60DA601A6107F11803C02200214E
:101B1800184673F0EFFB7B681B68414A93427AD101
:101B28004FF480324FF00003C7E9062310233B62CD
:101B380080237B620223BB620223FB6202233B6396
:101B480000237B630023BB630023FB634FF48033D4
:101B5800BB6607F11803184603F0A2FB0346002BE7
:101B680001D0FFF7BBFC2F4BD3F8D4302D4A43F4F8
:101B78008033C2F8D4302B4BD3F8D43003F48033FD
:101B88007B617B69274BD3F8E030264A43F0040396
:101B9800C2F8E030234BD3F8E03003F004033B6194
:101BA8003B69204BD3F8E0301E4A43F00803C2F8E3
:101BB800E0301C4BD3F8E03003F00803FB60FB680F
:101BC8004FF4F853C7F8DC300223C7F8E03000239D
:101BD800C7F8E4300323C7F8E8300C23C7F8EC3023
:101BE80007F1DC031946104801F0C2F80423C7F8CE
:101BF800DC300223C7F8E0300023C7F8E4300323C1
:101C0800C7F8E8300C23C7F8EC3007F1DC031946B5
:101C1800064801F0ADF800BFF037BD4680BD00BFF3
:101C2800007000520044025800080258000C025884
:101C380080B485B000AF78607B681B680B4A93421C
:101C48000ED10B4BD3F8E830094A43F04003C2F8F1
:101C5800E830074BD3F8E83003F04003FB60FB683B
:101C680000BF1437BD465DF8047B7047001800407C
:101C78000044025880B588B000AF786007F10C03C3
:101C880000221A605A609A60DA601A617B681B68E1
:101C9800124A93421ED1124BD3F8E030104A43F057
:101CA8008003C2F8E0300E4BD3F8E03003F0800335
:101CB800BB60BB684023FB6002233B6100237B6160
:101CC8000023BB610223FB6107F10C031946054899
:101CD80001F04EF800BF2037BD4680BD0018004017
:101CE80000440258001C025880B5BAB000AF7860B2
:101CF80007F1D40300221A605A609A60DA601A6108
:101D080007F11003C0220021184673F0F3FA7B682C
:101D18001B68274A934246D14FF001024FF0000357
:101D2800C7E904230023C7F88C3007F110031846CD
:101D380003F0B6FA0346002B01D0FFF7CFFB1D4B8B
:101D4800D3F8F0301B4A43F01003C2F8F030194BB7
:101D5800D3F8F03003F01003FB60FB68154BD3F8A1
:101D6800E030144A43F00103C2F8E030114BD3F8D5
:101D7800E03003F00103BB60BB684FF4C063C7F8F1
:101D8800D4300223C7F8D8300023C7F8DC3000234A
:101D9800C7F8E0300723C7F8E43007F1D403194641
:101DA800054800F0E5FF00BFE837BD4680BD00BF2D
:101DB80000100140004402580000025880B5BAB033
:101DC80000AF786007F1D40300221A605A609A6065
:101DD800DA601A6107F11003C0220021184673F077
:101DE80089FA7B681B68284A934249D14FF48022BC
:101DF8004FF00003C7E904234FF44013C7F89830A5
:101E080007F11003184603F04BFA0346002B01D0E4
:101E1800FFF764FB01F0A0FE1C4BD3F8E0301B4A2F
:101E280043F00103C2F8E030184BD3F8E03003F078
:101E38000103FB60FB684FF4C053C7F8D43002239A
:101E4800C7F8D8300023C7F8DC300023C7F8E030E3
:101E58000A23C7F8E43007F1D40319460C4800F008
:101E680087FF0A4BD3F8D830084A43F00063C2F81A
:101E7800D830064BD3F8D83003F00063BB60BB689A
:101E880000BFE837BD4680BD000008400044025846
:101E98000000025880B5B8B000AF07F1CC030022AB
:101EA8001A605A609A60DA601A61514B1B68002BFD
:101EB80040F099804E4B01221A6007F10803C022B6
:101EC8000021184673F016FA4FF080724FF00003A5
:101ED800C7E9022300233B6507F10803184603F00E
:101EE800DFF90346002B01D0FFF7F8FA414BD3F88E
:101EF800D430404A43F48053C2F8D4303D4BD3F831
:101F0800D43003F480537B607B684FF63F03C7F8F7
:101F1800CC300223C7F8D0300023C7F8D4300323CD
:101F2800C7F8D8300C23C7F8DC3007F1CC031946C2
:101F3800314800F01DFF2C23C7F8CC300223C7F826
:101F4800D0300023C7F8D4300323C7F8D8300C2387
:101F5800C7F8DC3007F1CC031946284800F008FF21
:101F680048F23713C7F8CC300223C7F8D030002323
:101F7800C7F8D4300323C7F8D8300C23C7F8DC30AF
:101F880007F1CC0319461E4800F0F2FE4FF68373A2
:101F9800C7F8CC300223C7F8D0300023C7F8D430B4
:101FA8000323C7F8D8300C23C7F8DC3007F1CC037B
:101FB8001946144800F0DCFE4CF20373C7F8CC3025
:101FC8000223C7F8D0300023C7F8D4300323C7F85A
:101FD800D8300C23C7F8DC3007F1CC0319460A487F
:101FE80000F0C6FE00E000BFE037BD4680BD00BF80
:101FF800000900240044025800140258001C02582A
:102008000018025800100258000C025880B582B01F
:1020180000AF7860FFF73EFF00BF0837BD4680BDC0
:1020280080B400AF00BFFDE780B400AF00BFFDE79C
:1020380080B400AF00BFFDE780B400AF00BFFDE78C
:1020480080B400AF00BFFDE780B400AF00BFBD465D
:102058005DF8047B704780B400AF00BFBD465DF8F3
:10206800047B704780B400AF00BFBD465DF8047BB9
:10207800704780B500AF00F003FA00BF80BD0000D4
:1020880080B400AF434BD3F88830424A43F470031E
:10209800C2F88830404B1B6803F00F03062B07D8A3
:1020A8003D4B1B6823F00F033B4A43F007031360C3
:1020B8003A4B1B68394A43F001031360374B00223F
:1020C8001A61364B1A683549354B13400B60324B51
:1020D8001B6803F00803002B07D02F4B1B6823F065
:1020E8000F032D4A43F0070313602C4B00229A611B
:1020F8002A4B0022DA61294B00221A62274B294A0F
:102108009A62264B284ADA62244B284A1A63234BE0
:1021180000225A63214B254A9A63204B0022DA6336
:102128001E4B224A1A641D4B00225A641B4B1B6823
:102138001A4A23F480231360184B00221A661C4B9A
:102148001A681C4B1340B3F1005F02D21A4B0122EC
:102158001A60124BD3F8D43003F48053002B13D1F8
:102168000E4BD3F8D4300D4A43F48053C2F8D43020
:10217800124B43F2D2021A60084BD3F8D430074A04
:1021880023F48053C2F8D43000BFBD465DF8047B09
:10219800704700BF00ED00E00020005200440258E4
:1021A8007FEDF6EA000202020000FF018002010151
:1021B8000010005C0000FFFF088100510040005241
:1021C800044BDA6842F00202DA605A689204FCD5DD
:1021D800704700BF00480258DFF838D0FFF7F0FF1B
:1021E800FFF74EFF0C480D490D4A002302E0D45872
:1021F800C4500433C4188C42F9D30A4A0A4C002349
:1022080001E013600432A242FBD373F08FF8FEF7AB
:10221800B9FBFEE70000062400000024BC000024EF
:102228006CA50708BC000024C01D0424FEE70000BC
:1022380080B586B000AF00200BF0C6FC78612B4A51
:102248007B6913600022002178690FF090F94FF440
:10225800F0724FF4487178690FF010FC7B693B61AC
:10226800386962F063F9F860E0224FF4B271F868F7
:102278000FF07DF96FF040426FF04041F8680FF0C1
:10228800FDFB1B49F86862F065F9386958F0AEFE45
:10229800B8604FF49C724FF4AF71B8680FF067F9EB
:1022A80032226421B8680FF0E9FBBB687B6078686C
:1022B80062F03CF938600022002138680FF057F9C5
:1022C8006FF040426FF0404138680FF0D7FB0022B2
:1022D8000921386815F0D0F90649386862F03AF9EA
:1022E80000F00AF800BF1837BD4680BD0409002475
:1022F800B0530708C053070880B400AF00BFBD46FD
:102308005DF8047B704780B500AFFFF791FF00BF11
:1023180080BD000080B483B000AF78607B68B3F103
:10232800FF3F01D1002304E07B689B00044A13446B
:102338001B6818460C37BD465DF8047B704700BF24
:102348000409002480B586B002AF0346FB71FB790F
:102358009BB2013B9BB21AB20A4B1A80094BB3F9E4
:1023680000301846FFF7D6FFF860002300930023DB
:10237800C8220921F86818F08DFB00BF1037BD4648
:1023880080BD00BF0800002480B500AFFFF7BBFF89
:102398000120FFF7D7FF00BF80BD000080B582B0E5
:1023A80000AF032000F06EF902F0A4FD0246154BC1
:1023B8009B691B0A03F00F031349CB5C03F01F034F
:1023C80022FA03F37B600F4B9B6903F00F030E4A5D
:1023D800D35C03F01F037A6822FA03F30B4A1360F5
:1023E8000B4A7B6813600F2000F014F80346002B9B
:1023F80001D0012302E0FFF7A3F8002318460837AD
:10240800BD4680BD00440258C85C0708040000248B
:102418000000002480B582B000AF7860154B1B78AF
:10242800002B01D1012321E0134B1A68114B1B78B3
:1024380019464FF47A73B3FBF1F3B2FBF3F3184682
:1024480000F045F90346002B01D001230EE07B681C
:102458000F2B0AD8002279684FF0FF3000F01DF9E1
:10246800064A7B681360002300E0012318460837FA
:10247800BD4680BD10000024000000240C0000248C
:1024880080B400AF064B1B781A46064B1B681344F2
:10249800044A136000BFBD465DF8047B704700BF67
:1024A800100000240809002480B400AF034B1B6807
:1024B8001846BD465DF8047B704700BF0809002434
:1024C80080B584B000AF7860FFF7EEFFB8607B6836
:1024D800FB60FB68B3F1FF3F05D00A4B1B781A4637
:1024E800FB681344FB6000BFFFF7DEFF0246BB68D2
:1024F800D31AFA689A42F7D800BF00BF1037BD4612
:1025080080BD00BF1000002480B400AF034B1B68DF
:102518001B0C1846BD465DF8047B70470010005C34
:1025280080B485B000AF78607B6803F00703FB6078
:102538000B4BDB68BB60BA684FF6FF031340BB6008
:10254800FB681A02BB681A43064B1343BB60044A74
:10255800BB68D36000BF1437BD465DF8047B704785
:1025680000ED00E00000FA0580B400AF044BDB6822
:102578001B0A03F007031846BD465DF8047B704745
:1025880000ED00E080B483B000AF03463960FB8003
:10259800B7F90630002B0ADB3B68DAB20C49B7F909
:1025A80006301201D2B20B4483F800230AE03B68DC
:1025B800DAB20849FB8803F00F03043B1201D2B2D8
:1025C8000B441A7600BF0C37BD465DF8047B704794
:1025D80000E100E000ED00E080B489B000AFF860F1
:1025E800B9607A60FB6803F00703FB61FB69C3F11C
:1025F8000703042B28BF0423BB61FB690433062BA4
:1026080002D9FB69033B00E000237B614FF0FF32F6
:10261800BB6902FA03F3DA43BB681A407B699A4044
:102628004FF0FF317B6901FA03F3D9437B680B4014
:10263800134318462437BD465DF8047B70470000F5
:1026480080B582B000AF78607B68013BB3F1807FD2
:1026580001D301230FE00A4A7B68013B53600F2135
:102668004FF0FF30FFF78EFF054B00229A60044BB6
:1026780007221A60002318460837BD4680BD00BFF0
:1026880010E000E080B582B000AF78607868FFF7AE
:1026980047FF00BF0837BD4680BD80B586B000AF94
:1026A8000346B9607A60FB81FFF75EFF78617A685C
:1026B800B9687869FFF790FF0246B7F90E301146FE
:1026C8001846FFF75FFF00BF1837BD4680BD80B5CD
:1026D80082B000AF78607868FFF7B2FF034618460B
:1026E8000837BD4680BD000080B400AFBFF35F8FE0
:1026F80000BF074B5B6A064A23F480335362054BDD
:1027080000225A6000BFBD465DF8047B704700BFD9
:1027180000ED00E090ED00E080B483B000AF786099
:102728000B4A7B6843F0010353600A4B5B6A094A12
:1027380043F480335362BFF34F8F00BFBFF36F8FF3
:1027480000BF00BF0C37BD465DF8047B704700BF73
:1027580090ED00E000ED00E080B483B000AF786059
:102768007B685A781B4B9A601A4B1B69194A23F0ED
:1027780001031361174A7B685B68D3607B681B7B26
:102788001A077B68DB7A1B061A437B689B7ADB0493
:102798001A437B685B7B9B041A437B689B7B5B04C7
:1027A8001A437B68DB7B1B041A437B685B7A1B023A
:1027B8001A437B681B7A5B0013437A6812781146C8
:1027C800044A0B43136100BF0C37BD465DF8047B18
:1027D800704700BF90ED00E080B582B000AF786030
:1027E8007B68002B01D101234FE07B6893F86130AF
:1027F800DBB2002B06D17B68002283F86020786862
:10280800FEF77CFE7B68022283F861207B681B68E8
:102818001A68204B13407A6851687A68D269114364
:102828007A6812680B4313607B681B685A6B1A4BF3
:1028380013407A6891687A68926911437A681268D5
:102848000B4353637B681B681A6C144B13407A68FC
:10285800D1687A6812680B4313647B681B685B6BEA
:1028680023F440117B681B691A057B685B695B056B
:102878001A437B681B680A435A637B6800225A66BE
:102888007B68012283F86120002318460837BD467B
:1028980080BD00BFBFFFF8FFF8FEFFFF0000FFFF8D
:1028A80080B586B002AFF860B9607A603B60FB68BB
:1028B80093F86030012B01D1022318E0FB68012254
:1028C80083F86020FB68022283F86120BB690093CB
:1028D8003B687A68B968F86800F0A4F9FB681B6877
:1028E8001A68FB681B6842F001021A600023184648
:1028F8001037BD4680BD80B586B000AF78603960BE
:102908000023FB607B681B681B6803F00103002B36
:1029180056D0FFF7C9FD78614BE07B681B685B68A0
:10292800FB60FB6803F02103002B23D0FB6803F056
:102938002003002B05D07B685B6E43F002027B68A6
:102948005A66FB6803F00103002B05D07B685B6EB9
:1029580043F001027B685A667B681B6821229A60F3
:102968007B68042283F861207B68002283F860205A
:102978000123A5E03B68B3F1FF3F1AD0FFF794FDB0
:1029880002467B69D31A3A689A4202D33B68002B05
:102998000FD17B685B6E43F020027B685A667B68C8
:1029A800032283F861207B68002283F860200323D8
:1029B80086E07B681B685B6803F00203002BACD0E1
:1029C8007B681B68DB6903F020033B617B681B683D
:1029D8005B6A03F020033A6913433B613B69002BB0
:1029E80061D0FFF761FD786156E07B681B685B6822
:1029F800FB60FB6803F02903002B2ED0FB6803F073
:102A08000803002B05D07B685B6E43F004027B68EB
:102A18005A66FB6803F02003002B05D07B685B6EC9
:102A280043F002027B685A66FB6803F00103002B3F
:102A380005D07B685B6E43F001027B685A667B6851
:102A48001B6829229A607B68042283F861207B68CE
:102A5800002283F86020012332E03B68B3F1FF3F96
:102A68001AD0FFF721FD02467B69D31A3A689A42C9
:102A780002D33B68002B0FD17B685B6E43F02002CA
:102A88007B685A667B68032283F861207B68002292
:102A980083F86020032313E07B681B685B6803F0FE
:102AA8001003002BA1D07B681B6812229A607B68F8
:102AB800012283F861207B68002283F860200023CC
:102AC80018461837BD4680BD80B487B000AF78601F
:102AD80039607B685B68B3F5403F3B68012B7B68D6
:102AE80093F86030012B01D1022392E07B68012228
:102AF80083F860207B68022283F861203A681346D5
:102B0800DB009B1A9B0028337A681344FB60FB6840
:102B18005A68FB689B681B041A43FB681B691B0502
:102B28001A43FB685B695B0513433B613C4B7B6164
:102B3800FB685B680A2B03D0FB685B68092B07D12D
:102B4800FB68DB6803F07F433A6913433B6105E0A8
:102B5800FB68DB681B063A6913433B613B68002B43
:102B680020D17B681B685A6A7B69DB4302EA030150
:102B78007B681B683A690A435A627B681B68FA6873
:102B880012689A61FB685B680A2B03D0FB685B6874
:102B9800092B35D1FB68DA687B681B6822F07F4215
:102BA8009A622DE0FB685B680B2B09D1FB689B6977
:102BB8009B043A6913433B617B6943F440237B617F
:102BC8007B681B68DA697B69DB4302EA03017B687F
:102BD8001B683A690A43DA617B681B68FA681268FD
:102BE8001A61FB685B680A2B03D0FB685B68092BDA
:102BF80006D1FB68DA687B681B6822F07F421A629C
:102C08007B68012283F861207B68002283F86020BA
:102C1800002318461C37BD465DF8047B704700BF8B
:102C28000F0033FF80B48BB000AFF860B9607A60F2
:102C38003B60FB681B685B6C03F040413B681A040F
:102C48003B6B1A43FB681B680A435A64FB681B68A2
:102C58007A68DA63FB685B68B3F5403F74D1BB6898
:102C680003F07F433B62BB6803F47F03FB61BB68EF
:102C780003F47F43BB61BB68DBB27B61FB689B6885
:102C8800002B08D1BA69FB691A433B6A13437A6976
:102C980013437B6253E0FB689B68012B06D1BA693A
:102CA800FB6913437A6913437B6248E0FB689B68BE
:102CB800022B11D1FB69DB0CFB61BB699B0ABB6171
:102CC8007B69DB087B61BB695A01FB69DB02134343
:102CD8007A6913437B6232E0FB689B68032B17D148
:102CE8003B6ADB0F3B62FB69DB0CFB61BB69DB0A00
:102CF800BB617B69DB087B61BB695A01FB699B028D
:102D08001A433B6ADB0313437A6913437B6216E079
:102D18003B6A1B0F3B62FB691B0DFB61BB691B0B0D
:102D2800BB617B691B097B61BB691A01FB691B02DB
:102D38001A433B6A1B0313437A6913437B62FB689C
:102D48001B687A6A9A630DE0FB685B68B3F5802FAD
:102D580004D1FB681B68BA685A6103E0FB681B680A
:102D6800BA68DA6000BF2C37BD465DF8047B70474F
:102D780080B489B000AF786039600023FB618E4B66
:102D88007B619EE13B681A680121FB6901FA03F344
:102D980013403B613B69002B00F090813B685B6806
:102DA80003F00303012B05D03B685B6803F00303C2
:102DB800022B30D17B689B68BB61FB695B000322F7
:102DC80002FA03F3DB43BA691340BB613B68DA6874
:102DD800FB695B0002FA03F3BA691343BB617B68C2
:102DE800BA699A607B685B68BB610122FB6902FA79
:102DF80003F3DB43BA691340BB613B685B681B099B
:102E080003F00102FB6902FA03F3BA691343BB61D9
:102E18007B68BA695A603B685B6803F00303032B5D
:102E280009D13B685B6803F00303032B1BD13B68A4
:102E38009B68012B17D07B68DB68BB61FB695B0073
:102E4800032202FA03F3DB43BA691340BB613B6810
:102E58009A68FB695B0002FA03F3BA691343BB6122
:102E68007B68BA69DA603B685B6803F00303022B8E
:102E780023D1FB69DA087B68083253F82230BB613A
:102E8800FB6903F007039B000F2202FA03F3DB43FD
:102E9800BA691340BB613B681A69FB6903F0070311
:102EA8009B0002FA03F3BA691343BB61FB69DA08B2
:102EB8007B680832B96943F822107B681B68BB61DC
:102EC800FB695B00032202FA03F3DB43BA69134090
:102ED800BB613B685B6803F00302FB695B0002FAB5
:102EE80003F3BA691343BB617B68BA691A603B682C
:102EF8005B6803F44033002B00F0E0802F4BD3F8DD
:102F0800F4302E4A43F00203C2F8F4302B4BD3F8C6
:102F1800F43003F00203FB60FB68294AFB699B0855
:102F2800023352F82330BB61FB6903F003039B00B3
:102F38000F2202FA03F3DB43BA691340BB617B68D3
:102F4800204A934252D07B681F4A934231D07B6813
:102F58001E4A93422BD07B681D4A934225D07B683A
:102F68001C4A93421FD07B681B4A934219D07B6846
:102F78001A4A934213D07B68194A93420DD07B6852
:102F8800184A934207D07B68174A934201D1092314
:102F98002DE00A232BE0082329E0072327E0062356
:102FA80025E0052323E0042321E003231FE0022377
:102FB8001DE001231BE000BF8000005800440258B8
:102FC8000004005800000258000402580008025883
:102FD800000C025800100258001402580018025839
:102FE800001C025800200258002402580023FA69E5
:102FF80002F0030292009340BA691343BB61384957
:10300800FB699B080233BA6941F823204FF0B043AB
:103018001B68BB613B69DB43BA691340BB613B6812
:103028005B6803F48013002B03D0BA693B69134330
:10303800BB614FF0B042BB6913604FF0B0435B68AF
:10304800BB613B69DB43BA691340BB613B685B68A2
:1030580003F40013002B03D0BA693B691343BB6127
:103068004FF0B042BB6953607B695B68BB613B69E9
:10307800DB43BA691340BB613B685B6803F4003308
:10308800002B03D0BA693B691343BB617B69BA69FA
:103098005A607B691B68BB613B69DB43BA691340B3
:1030A800BB613B685B6803F48033002B03D0BA69CB
:1030B8003B691343BB617B69BA691A60FB690133D9
:1030C800FB613B681A68FB6922FA03F3002B7FF463
:1030D80059AE00BF00BF2437BD465DF8047B70477A
:1030E8000004005880B485B000AF78600B467B8040
:1030F8007B681A697B881340002B02D00123FB737D
:1031080001E00023FB73FB7B18461437BD465DF8CE
:10311800047B704780B483B000AF78600B467B8037
:1031280013467B707B78002B03D07A887B689A6182
:1031380003E07B881A047B689A6100BF0C37BD46A0
:103148005DF8047B704780B485B000AF78600B46AB
:103158007B807B685B69FB607A88FB6813401A0494
:10316800FB68D9437B880B401A437B689A6100BF90
:103178001437BD465DF8047B7047000080B582B007
:1031880000AF78607B68002B01D101238BE07B685E
:1031980093F84130DBB2002B06D17B68002283F81C
:1031A80040207868FEF7E6F97B68242283F84120FE
:1031B8007B681B681A687B681B6822F001021A602A
:1031C8007B685A687B681B6822F070621A617B68AA
:1031D8001B689A687B681B6822F400429A607B68C7
:1031E800DB68012B07D17B689A687B681B6842F40F
:1031F80000429A6006E07B689A687B681B6842F424
:1032080004429A607B68DB68022B08D17B681B68E4
:103218005A687B681B6842F400625A6007E07B6862
:103228001B685A687B681B6822F400625A607B68D6
:103238001B6859687B681A681D4B0B4353607B6891
:103248001B68DA687B681B6822F40042DA607B68D6
:103258001A697B685B6942EA03017B689B691A0209
:103268007B681B680A43DA607B68D9697B681A6ADD
:103278007B681B680A431A607B681B681A687B684E
:103288001B6842F001021A607B6800225A647B685E
:10329800202283F841207B6800221A637B68002281
:1032A80083F84220002318460837BD4680BD00BF7A
:1032B8000080000280B483B000AF786039607B681A
:1032C80093F84130DBB2202B38D17B6893F840303B
:1032D800012B01D1022332E07B68012283F84020D0
:1032E8007B68242283F841207B681B681A687B6806
:1032F8001B6822F001021A607B681B681A687B68E9
:103308001B6822F480521A607B681B6819687B6806
:103318001B683A680A431A607B681B681A687B68EE
:103328001B6842F001021A607B68202283F8412062
:103338007B68002283F84020002300E0022318461F
:103348000C37BD465DF8047B704780B485B000AF8C
:10335800786039607B6893F84130DBB2202B39D133
:103368007B6893F84030012B01D1022333E07B685E
:10337800012283F840207B68242283F841207B685F
:103388001B681A687B681B6822F001021A607B6858
:103398001B681B68FB60FB6823F47063FB603B6879
:1033A8001B02FA681343FB607B681B68FA681A60A3
:1033B8007B681B681A687B681B6842F001021A6008
:1033C8007B68202283F841207B68002283F8402014
:1033D800002300E0022318461437BD465DF8047B3D
:1033E800704780B584B000AF78607B68002B01D14E
:1033F80001238FE07B6893F8A130DBB2002B06D164
:103408007B68002283F8A0207868FEF71DF97B68A6
:10341800022283F8A1207B681B689A697B681B6875
:1034280022F070429A617B681B6899697B685A68C8
:103438007B689B681A437B68DB681A437B681B6957
:103448001A437B681B680A439A617B685B691B04A3
:10345800FB607B6899697B681B68FA680A439A6015
:103468007B68DB691B04FB607B68196A7B681B68E7
:10347800FA680A43DA607B685B6A1B04FB607B6856
:10348800996A7B681B68FA680A431A617B68DB6A79
:103498001B04FB607B68196B7B681B68FA680A432E
:1034A8005A617B6893F835301B02FB607B6893F8A0
:1034B80036301B04BB607B681B68DA6A7B681B6854
:1034C80002F07F42DA627B681B68D96ABA68FB68D7
:1034D80013437A6892F834201A437B681B680A43BE
:1034E800DA627B681B685A6B7B681B6842F00602CD
:1034F8005A637B681B689A697B681B6842F0010203
:103508009A617B680022C3F8A4207B68012283F8B3
:10351800A120002318461037BD4680BDB0B584B041
:1035280000AFF860B9607A60FB6893F8A030012BAF
:1035380001D102232CE0FB68012283F8A020FB685C
:10354800022283F8A120FA687B68342101FB03F387
:10355800134403F13802BB6814461D460FCD0FC44F
:103568000FCD0FC40FCD0FC42B6823607A68B968DC
:10357800F86800F011F8FB681B6801225A62FB68C2
:10358800012283F8A120FB68002283F8A0200023F1
:1035980018461037BD46B0BD80B489B000AFF8609A
:1035A800B9607A60BB685A68FB681B68DB681B0CEB
:1035B800C3F30B0313441B04FB61FB681B681A4627
:1035C8007B68DB01134484335B68FA681268114630
:1035D8007A68D2010A44843203F470435360BB68AA
:1035E8001A68FB681B68DB681B0CC3F30B031344E6
:1035F8005A1CFB681B6819467B68DB010B44843343
:103608001946FB6913434B60BB68DA68FB681B68A3
:10361800DB68C3F30A0313441B04FB61FB681B68E4
:103628001A467B68DB01134484339B68FA68126886
:1036380011467A68D2010A44843203F470439360D5
:10364800BB689A68FB681B68DB68C3F30A0313440A
:103658005A1CFB681B6819467B68DB010B448433E2
:103668001946FB6913438B60FB681B681A467B6825
:10367800DB01134484331B69FA68126811467A68BF
:10368800D2010A44843223F007031361FB681B68E4
:103698001A467B68DB01134484331A46BB681B69EE
:1036A8001361BB6893F831301B02FB61BB6893F868
:1036B80032301B04BB61BB689B691B067B61BB681E
:1036C80093F830301A46FB691A43BB691A43FB6802
:1036D8001B6819467B68DB010B44843319467B69F8
:1036E80013438B61FB681B681A467B68DB01134434
:1036F80084335B69FA68126811467A68D2010A4411
:10370800843223F0FF035361FB681B681A467B6809
:10371800DB01134484331A46BB685B695361FB6859
:103728001B681A467B68DB0113448433DA69FB683B
:103738001B6819467B68DB010B44843319464F4BE1
:103748001340CB61BB68DA69BB681B6AF968096812
:1037580008467968C901014484311343CB61FB6889
:103768001B681A467B68DB01134484331A46BB681E
:103778005B6A9362BB681B69002B02D10423FB615F
:103788001BE0BB681B69012B02D10323FB6114E01A
:10379800BB681B69042B0BD0BB681B69022B07D0C5
:1037A800BB681B69032B03D0BB681B69072B02D1BD
:1037B8000223FB6101E00123FB61FB681B681A46D9
:1037C8007B68DB0113448433DB6AFA6812681146AC
:1037D8007A68D2010A44843203F0E023D362BB68DA
:1037E8009B6AFA6902FB03F31A04BB685968BB6851
:1037F8001B68CB1AF96901FB03F30733F9680968F9
:1038080008467968C901014484311343CB62FB68D7
:103818001B681A467B68DB01134484331A6BFB6808
:103828001B6819467B68DB010B4484331946144B2B
:1038380013400B63FB681B681A467B68DB01134463
:1038480084331A46BB68DB6A1363FB681B681A4635
:103858007B68DB01134484331B68FA6812681146DD
:103868007A68D2010A44843243F00103136000BF2E
:103878002437BD465DF8047B704700BFF8F8FFFFAA
:1038880000F8FFFF80B586B002AF78607B68002B38
:1038980001D10123FEE07B6893F89534DBB2002B5D
:1038A80006D17B68002283F894247868FEF786FAAC
:1038B8007B68032283F895247B681B68184608F008
:1038C80041FF7B6818687B681A7C8DF800200433F8
:1038D8000ECB08F0BFFE0346002B05D07B68022202
:1038E80083F895240123D5E07B681B6800211846DE
:1038F80008F039FF0346002B05D07B68022283F8C5
:1039080095240123C6E00023FB734AE0FA7B79681B
:103918001346DB0013449B000B44153301221A7035
:10392800FA7B79681346DB0013449B000B4414337D
:10393800FA7B1A70FA7BFB7B98B279681346DB0036
:1039480013449B000B442E3302461A80FA7B796895
:103958001346DB0013449B000B44183300221A70F3
:10396800FA7B79681346DB0013449B000B441C3335
:1039780000221A60FA7B79681346DB0013449B0027
:103988000B44203300221A60FA7B79681346DB0067
:1039980013449B000B44243300221A60FB7B013341
:1039A800FB737B681B79FA7B9A42AFD30023FB73C6
:1039B80044E0FA7B79681346DB0013449B000B4410
:1039C80003F2552300221A70FA7B79681346DB004C
:1039D80013449B000B4403F51573FA7B1A70FA7BAA
:1039E80079681346DB0013449B000B4403F51673F8
:1039F80000221A70FA7B79681346DB0013449B0097
:103A08000B4403F5177300221A60FA7B7968134692
:103A1800DB0013449B000B4403F5187300221A6063
:103A2800FA7B79681346DB0013449B000B4403F5CB
:103A3800197300221A60FB7B0133FB737B681B79C7
:103A4800FA7B9A42B5D37B6818687B681A7C8DF834
:103A5800002004330ECB08F0D3FE0346002B05D01C
:103A68007B68022283F89524012313E07B680022F7
:103A78005A747B68012283F895247B681B7B012B91
:103A880002D1786800F00AF87B681B68184609F0CC
:103A98008EF8002318461037BD4680BD80B485B027
:103AA80000AF78607B681B68FB607B680122C3F805
:103AB800D8247B68002283F8CC24FB689B6943F0F8
:103AC8000062FB689A61FB685A6D054B1343FA68FC
:103AD8005365002318461437BD465DF8047B7047CC
:103AE8000300001080B584B000AF7860194BDB6824
:103AF80003F00403042B0AD0164BDB6803F007031A
:103B08007A689A4201D001231FE000231DE0114B7F
:103B1800DB6823F007020F497B681343CB60FEF78D
:103B2800C3FCF86009E0FEF7BFFC0246FB68D31A45
:103B3800B3F57A7F01D9012307E0064B5B6803F4EC
:103B48000053B3F5005FEED1002318461037BD4689
:103B580080BD00BF0048025880B400AF054BDB6849
:103B6800044A43F08073D36000BFBD465DF8047B10
:103B7800704700BF0048025880B586B002AF786031
:103B8800FEF792FCF8607B68002B01D101235FE00F
:103B98007B6893F84130DBB2002B07D17868FDF7DA
:103BA800DDFE41F28831786800F0B7F97B681B6860
:103BB8001B6823F4F8517B689B68013B1A027B68F9
:103BC8001B680A431A607B689B6C0093FB680022A1
:103BD8002021786800F0AFF90346FB72FB7A002BCE
:103BE80035D17B681B681A681B4B13407A6852688A
:103BF80011067A68D26811437A68D26911437A68E3
:103C0800126A11437A6812680B4313607B681B6859
:103C18005A68124B13407A68126911047A6852691B
:103C280011437A68926911437A6812680B435360AA
:103C38007B681B681A687B681B6842F001021A607F
:103C48007B6800225A647B68012283F84120FB7A52
:103C580018461037BD4680BD2FFFFF00FEF8E0FF75
:103C680080B588B002AFF860B9607A60FEF71CFCD6
:103C78003861FB6893F84030DBB2012B01D1022395
:103C880048E0FB68012283F84020FB6893F8413044
:103C9800DBB2012B37D1FB6800225A64FB68022291
:103CA80083F841207B6800933B6900222021F86853
:103CB80000F041F90346FB75FB7D002B25D100225E
:103CC800B968F86800F06EF9BB685B6A002B15D11B
:103CD8007B6800933B6901220221F86800F02BF908
:103CE8000346FB75FB7D002B0FD1FB681B68022286
:103CF800DA60FB68012283F8412006E0FB680122B4
:103D080083F8412001E00223FB75FB68002283F859
:103D18004020FB7D18461837BD4680BD80B58AB067
:103D280002AFF860B9607A600023FB77FEF7BCFB4E
:103D3800B861FB681B689B697B61FB681B68203363
:103D48003B61FB6893F84030DBB2012B01D10223C1
:103D58007DE0FB68012283F84020FB6893F841303E
:103D6800DBB2012B6CD1FB6800225A64BB68002BC4
:103D78005DD0FB68222283F84120FB681B681B6921
:103D88005A1CFB689A63FB681B681B695A1CFB6812
:103D98005A63FB68BA681A63FB681B685B6923F09F
:103DA8004062FB681B6842F080625A61FB681B68CE
:103DB8007A699A611CE07B680093BB69012206213D
:103DC800F86800F0B8F80346FB77FB7F002B14D1A6
:103DD800FB681B6B3A691278D2B21A70FB681B6BCE
:103DE8005A1CFB681A63FB689B6B5A1EFB689A6334
:103DF800FB689B6B002BDED100E000BFFB7F002B34
:103E080010D17B680093BB6901220221F86800F099
:103E180092F80346FB77FB7F002B03D1FB681B68F6
:103E28000222DA60FB68012283F841200AE0FB687D
:103E38005B6C43F00802FB685A640123FB7701E0DE
:103E48000223FB77FB68002283F84020FB7F18469B
:103E58002037BD4680BD80B588B002AFF860B96034
:103E68007A60FEF721FB3861FB6893F84030DBB2DB
:103E7800012B01D102234CE0FB68012283F840208A
:103E8800FB6893F84130DBB2012B3BD1FB68002281
:103E98005A64FB68822283F84120FB689B6C00937C
:103EA8003B6900222021F86800F045F80346FB75BD
:103EB800FB7D002B28D1FB681B681B6823F00801D9
:103EC8007B685A68FB681B680A431A607B685B68F2
:103ED800082B10D1FB681B687A6812681A63FB68A4
:103EE8001B681022DA60FB681B681A68FB681B688D
:103EF80042F480121A604FF04062B968F86800F026
:103F080051F801E00223FB75FB68002283F840208A
:103F1800FB7D18461837BD4680BD80B483B000AF1E
:103F2800786039607B683A689A6400BF0C37BD4690
:103F38005DF8047B704780B584B000AFF860B96065
:103F48003B601346FB711AE0BB69B3F1FF3F16D023
:103F5800FEF7AAFA02463B68D31ABA699A4202D314
:103F6800BB69002B0BD1FB68042283F84120FB6856
:103F78005B6C43F00102FB685A6401230EE0FB68A6
:103F88001B689A68BB681340002B14BF01230023E9
:103F9800DBB21A46FB799A42D6D10023184610376D
:103FA800BD4680BD80B485B000AFF860B9607A6066
:103FB800BB685B6A002B09D07B68B3F1406F05D002
:103FC800BB689A6AFB681B68013A1A61BB689B69FF
:103FD800002B00F0C180BB681B6A002B63D0FB6814
:103FE8001B68BA689268DA61BB68DB69002B31D05C
:103FF800BB68DA6ABB681B6B1A43BB685B6B1A4306
:10400800BB685B6A1A43BB685B699B041A43BB685D
:104018001B691A43BB681B6A1A43BB68DB681A43EF
:10402800BB68DB691A43BB689B691A43BB681B689A
:1040380042EA0301FB681B687A680A435A617B6895
:10404800B3F1406F00F03F81FB681B68BA685268A3
:104058009A6138E1BB68DA6ABB681B6B1A43BB68B4
:104068005B6B1A43BB685B6A1A43BB685B699B045A
:104078001A43BB681B691A43BB681B6A1A43BB68AF
:10408800DB691A43BB689B691A43BB681B6842EA31
:104098000301FB681B687A680A435A61FB681B685E
:1040A80000229A610FE1BB68DB69002B2ED0BB6848
:1040B800DA6ABB681B6B1A43BB685B6B1A43BB6845
:1040C8005B6A1A43BB685B699B041A43BB681B6A3B
:1040D8001A43BB68DB681A43BB68DB691A43BB68D1
:1040E8009B691A43BB681B6842EA0301FB681B68AB
:1040F8007A680A435A617B68B3F1406F00F0E38045
:10410800FB681B68BA6852689A61DCE0BB68DA6AC7
:10411800BB681B6B1A43BB685B6B1A43BB685B6A63
:104128001A43BB685B699B041A43BB681B6A1A4342
:10413800BB68DB691A43BB689B691A43BB681B6889
:1041480042EA0301FB681B687A680A435A61FB6804
:104158001B6800229A61B6E0BB681B6A002B5DD021
:10416800FB681B68BA689268DA61BB68DB69002B78
:104178002ED0BB68DA6ABB681B6B1A43BB685B6BE3
:104188001A43BB685B6A1A43BB685B699B041A43A2
:10419800BB681B691A43BB681B6A1A43BB68DB68A8
:1041A8001A43BB68DB691A43BB689B6942EA03018F
:1041B800FB681B687A680A435A617B68B3F1406FF1
:1041C80000F08180FB681B68BA6852689A617AE0DF
:1041D800BB68DA6ABB681B6B1A43BB685B6B1A4324
:1041E800BB685B6A1A43BB685B699B041A43BB687C
:1041F8001B691A43BB681B6A1A43BB68DB691A430D
:10420800BB689B6942EA0301FB681B687A680A433A
:104218005A61FB681B6800229A6154E0BB68DB693D
:10422800002B2AD0BB68DA6ABB681B6B1A43BB68D1
:104238005B6B1A43BB685B6A1A43BB685B699B0488
:104248001A43BB681B6A1A43BB68DB681A43BB681E
:10425800DB691A43BB689B6942EA0301FB681B6878
:104268007A680A435A617B68B3F1406F2BD0FB68C8
:104278001B68BA6852689A6125E0BB685B6A002BC4
:1042880021D0BB68DA6ABB681B6B1A43BB685B6BDF
:104298001A43BB685B6A1A43BB685B699B041A4391
:1042A800BB681B6A1A43BB68DB691A43BB689B6916
:1042B80042EA0301FB681B687A680A435A61FB6893
:1042C8001B6800229A6100BF1437BD465DF8047B65
:1042D8007047000080B58CB000AF78607B68002B19
:1042E80002D1012300F048BC7B681B6803F001037E
:1042F800002B00F08880994B1B6903F03803FB62A0
:10430800964B9B6ABB62FB6A102B07D0FB6A182B83
:1043180011D1BB6A03F00303022B0CD18F4B1B682E
:1043280003F40033002B6DD07B685B68002B69D1E8
:10433800012300F021BC7B685B68B3F5803F06D1A0
:10434800864B1B68854A43F4803313602EE07B68F4
:104358005B68002B0CD1814B1B68804A23F48033A7
:1043680013607E4B1B687D4A23F4802313601DE095
:104378007B685B68B3F5A02F0CD1784B1B68774A34
:1043880043F480231360754B1B68744A43F48033ED
:1043980013600BE0714B1B68704A23F48033136081
:1043A8006E4B1B686D4A23F4802313607B685B683F
:1043B800002B13D0FEF778F8786208E0FEF774F85F
:1043C80002467B6AD31A642B01D90323D4E3634BD7
:1043D8001B6803F40033002BF0D014E0FEF764F8F8
:1043E800786208E0FEF760F802467B6AD31A642B0D
:1043F80001D90323C0E3594B1B6803F40033002B96
:10440800F0D100E000BF7B681B6803F00203002BBB
:1044180000F0CA80514B1B6903F038033B624F4BD5
:104428009B6AFB613B6A002B07D03B6A182B56D16D
:10443800FB6903F00303002B51D1484B1B6803F0C1
:104448000403002B05D07B68DB68002B01D1012316
:1044580092E3424B1B6823F019027B68DB683F49F3
:1044680013430B60FEF720F8786208E0FEF71CF8AB
:1044780002467B6AD31A022B01D903237CE3374B0C
:104488001B6803F00403002BF0D0FEF73DF8034649
:1044980041F20302934217D87B681B69402B08D16D
:1044A8002E4B5B6823F47C332C4A43F4003353606F
:1044B8007AE02A4B5B6823F47C327B681B691B0318
:1044C800264913434B606FE0244B5B6823F0FE42A0
:1044D8007B681B691B06214913434B6064E07B68BA
:1044E800DB68002B47D01D4B1B6823F019027B6843
:1044F800DB681A4913430B60FDF7D6FF786208E0C2
:10450800FDF7D2FF02467B6AD31A022B01D9032397
:1045180032E3124B1B6803F00403002BF0D0FDF7C5
:10452800F3FF034641F20302934219D87B681B69E3
:10453800402B08D1094B5B6823F47C33074A43F4CA
:104548000033536030E0054B5B6823F47C327B68B2
:104558001B691B03014913434B6025E000440258C3
:104568009A4B5B6823F0FE427B681B691B069749E0
:1045780013434B6018E0954B1B68944A23F00103E2
:104588001360FDF791FF786208E0FDF78DFF0246A2
:104598007B6AD31A022B01D90323EDE28B4B1B68EC
:1045A80003F00403002BF0D17B681B6803F01003B1
:1045B800002B00F0A980854B1B6903F03803BB6111
:1045C800824B9B6A7B61BB69082B07D0BB69182BA0
:1045D8003AD17B6903F00303012B35D17B4B1B6870
:1045E80003F48073002B05D07B68DB69802B01D036
:1045F8000123C1E2FDF788FF034641F2030293421B
:1046080017D87B681B6A202B08D1704B5B6823F096
:10461800F8436E4A43F08043536075E06B4B5B6828
:1046280023F0F8427B681B6A9B06684913434B607A
:104638006AE0664BDB6823F07C527B681B6A1B06CA
:1046480062491343CB605FE07B68DB69002B42D093
:104658005E4B1B685D4A43F080031360FDF724FF3F
:10466800786208E0FDF720FF02467B6AD31A022B26
:1046780001D9032380E2554B1B6803F48073002B98
:10468800F0D0FDF741FF034641F20302934217D8E9
:104698007B681B6A202B08D14C4B5B6823F0F843DE
:1046A8004A4A43F0804353602EE0484B5B6823F04E
:1046B800F8427B681B6A9B06444913434B6023E01E
:1046C800424BDB6823F07C527B681B6A1B063F4920
:1046D8001343CB6018E03D4B1B683C4A23F0800332
:1046E8001360FDF7E1FE786208E0FDF7DDFE0246A3
:1046F8007B6AD31A022B01D903233DE2334B1B6893
:1047080003F48073002BF0D17B681B6803F0080367
:10471800002B36D07B685B69002B19D02B4B5B6F65
:104728002A4A43F001035367FDF7BEFE786208E0AA
:10473800FDF7BAFE02467B6AD31A022B01D903237E
:104748001AE2224B5B6F03F00203002BF0D018E053
:104758001E4B5B6F1D4A23F001035367FDF7A4FE50
:10476800786208E0FDF7A0FE02467B6AD31A022BA6
:1047780001D9032300E2154B5B6F03F00203002B02
:10478800F0D17B681B6803F02003002B39D07B68CD
:104798009B69002B1CD00D4B1B680C4A43F48053BB
:1047A8001360FDF781FE786208E0FDF77DFE0246A2
:1047B8007B6AD31A022B01D90323DDE1034B1B6863
:1047C80003F40053002BF0D01BE000BF0044025854
:1047D8009B4B1B689A4A23F480531360FDF764FED1
:1047E800786208E0FDF760FE02467B6AD31A022B66
:1047F80001D90323C0E1924B1B6803F40053002B3B
:10480800F0D17B681B6803F00403002B00F0818063
:104818008C4B1B688B4A43F480731360FDF744FE8E
:10482800786208E0FDF740FE02467B6AD31A642BE3
:1048380001D90323A0E1834B1B6803F48073002B89
:10484800F0D07B689B68012B06D17D4B1B6F7C4A9F
:1048580043F0010313672DE07B689B68002B0CD1A4
:10486800774B1B6F764A23F001031367744B1B6F5A
:10487800734A23F0040313671CE07B689B68052BCD
:104888000CD16F4B1B6F6E4A43F0040313676C4BDC
:104898001B6F6B4A43F0010313670BE0684B1B6FF8
:1048A800674A23F001031367654B1B6F644A23F0C3
:1048B800040313677B689B68002B15D0FDF7F4FD94
:1048C80078620AE0FDF7F0FD02467B6AD31A41F2EE
:1048D8008832934201D903234EE1594B1B6F03F0F1
:1048E8000203002BEED014E0FDF7DEFD78620AE04B
:1048F800FDF7DAFD02467B6AD31A41F28832934209
:1049080001D9032338E14E4B1B6F03F00203002B40
:10491800EED17B685B6A002B00F02D81484B1B6948
:1049280003F03803182B00F0BD807B685B6A022B0C
:1049380040F09E80424B1B68414A23F0807313600D
:10494800FDF7B2FD786208E0FDF7AEFD02467B6A2E
:10495800D31A022B01D903230EE1394B1B6803F04C
:104968000073002BF0D1364B9A6A374B13407A68A4
:10497800916A7A68D26A12010A43314913438B62F9
:104988007B681B6B013BC3F308027B685B6B013BD5
:104998005B029BB21A437B689B6B013B1B0403F4CD
:1049A800FE031A437B68DB6B013B1B0603F0FE43E7
:1049B800234913430B63224BDB6A214A23F001038B
:1049C800D3621F4B5A6B214B13407A68926CD2000A
:1049D8001B4913434B631A4BDB6A23F00C027B68B9
:1049E8001B6C17491343CB62154BDB6A23F0020299
:1049F8007B685B6C12491343CB62114BDB6A104A2C
:104A080043F48033D3620E4BDB6A0D4A43F4003320
:104A1800D3620B4BDB6A0A4A43F48023D362084B08
:104A2800DB6A074A43F00103D362054B1B68044A5B
:104A380043F080731360FDF737FD786211E000BF23
:104A480000440258004802580CFCFFFF0700FFFF13
:104A5800FDF72AFD02467B6AD31A022B01D90323EC
:104A68008AE0474B1B6803F00073002BF0D082E00C
:104A7800434B1B68424A23F080731360FDF714FD13
:104A8800786208E0FDF710FD02467B6AD31A022B14
:104A980001D9032370E03A4B1B6803F00073002B25
:104AA800F0D168E0364B9B6A3B61354B1B6BFB6072
:104AB8007B685B6A012B31D03B6903F003027B689A
:104AC8009B6A9A422AD13B691B0903F03F027B6823
:104AD800DB6A9A4222D1FB68C3F308027B681B6B2E
:104AE800013B9A421AD1FB685B0A03F07F027B689C
:104AF8005B6B013B9A4211D1FB681B0C03F07F02F0
:104B08007B689B6B013B9A4208D1FB681B0E03F044
:104B18007F027B68DB6B013B9A4201D001232BE0CB
:104B2800174B5B6BDB08C3F30C033B617B689B6C27
:104B38003A699A421FD0124BDB6A114A23F00103EB
:104B4800D362FDF7B1FC786200BFFDF7ADFC024609
:104B58007B6A9342F9D00A4B5A6B0A4B13407A6826
:104B6800926CD200064913434B63054BDB6A044A37
:104B780043F00103D362002318463037BD4680BD99
:104B8800004402580700FFFF80B586B000AF786088
:104B980039607B68002B01D101239CE18A4B1B689B
:104BA80003F00F033A689A4210D9874B1B6823F029
:104BB8000F0285493B6813430B60834B1B6803F066
:104BC8000F033A689A4201D0012384E17B681B688D
:104BD80003F00403002B10D07B681A697B4B9B6998
:104BE80003F070039A4208D9784B9B6923F070024E
:104BF8007B681B69754913438B617B681B6803F0ED
:104C08000803002B10D07B685A69704BDB6903F0EE
:104C180070039A4208D96D4BDB6923F070027B68F8
:104C28005B696A491343CB617B681B6803F0100317
:104C3800002B10D07B689A69644BDB6903F4E0634E
:104C48009A4208D9614BDB6923F4E0627B689B696F
:104C58005E491343CB617B681B6803F02003002B7C
:104C680010D07B68DA69594B1B6A03F070039A42CB
:104C780008D9564B1B6A23F070027B68DB695349DD
:104C880013430B627B681B6803F00203002B10D0F0
:104C98007B68DA684D4B9B6903F00F039A4208D989
:104CA8004A4B9B6923F00F027B68DB684749134333
:104CB8008B617B681B6803F00103002B55D0434BC5
:104CC8009B6923F470627B689B68404913438B613E
:104CD8007B685B68022B07D13C4B1B6803F40033ED
:104CE800002B21D10123F6E07B685B68032B07D1F9
:104CF800364B1B6803F00073002B15D10123EAE043
:104D08007B685B68012B07D1304B1B6803F4807309
:104D1800002B09D10123DEE02C4B1B6803F00403B0
:104D2800002B01D10123D6E0284B1B6923F0070291
:104D38007B685B68254913430B61FDF7B5FB786118
:104D48000AE0FDF7B1FB02467B69D31A41F28832CB
:104D5800934201D90323BEE01C4B1B6903F03802C0
:104D68007B685B68DB009A42EBD17B681B6803F0C9
:104D78000203002B10D07B68DA68144B9B6903F0A0
:104D88000F039A4208D2114B9B6923F00F027B68EC
:104D9800DB680E4913438B610B4B1B6803F00F0351
:104DA8003A689A4214D2084B1B6823F00F0206494E
:104DB8003B6813430B60044B1B6803F00F033A680E
:104DC8009A4205D0012386E0002000520044025890
:104DD8007B681B6803F00403002B10D07B681A69FA
:104DE8003F4B9B6903F070039A4208D23C4B9B6986
:104DF80023F070027B681B69394913438B617B6818
:104E08001B6803F00803002B10D07B685A69344BE9
:104E1800DB6903F070039A4208D2314BDB6923F057
:104E280070027B685B692E491343CB617B681B6802
:104E380003F01003002B10D07B689A69284BDB69BC
:104E480003F4E0639A4208D2254BDB6923F4E0625D
:104E58007B689B6922491343CB617B681B6803F01D
:104E68002003002B10D07B68DA691D4B1B6A03F006
:104E780070039A4208D21A4B1B6A23F070027B68AF
:104E8800DB69174913430B6200F034F80246144BF0
:104E98009B691B0A03F00F031249CB5C03F01F0345
:104EA80022FA03F33B610E4B9B6903F00F030D4A93
:104EB800D35C03F01F033A6922FA03F30A4A13602A
:104EC8000A4A3B6913600A4B1B681846FDF7A2FAA9
:104ED8000346FB73FB7B18461837BD4680BD00BFF1
:104EE80000440258C85C070804000024000000249D
:104EF8000C00002480B489B000AFB34B1B6903F0E9
:104F08003803182B00F2558101A252F823F000BF94
:104F18007D4F0008BB510008BB510008BB51000879
:104F2800BB510008BB510008BB510008BB51000829
:104F3800A34F0008BB510008BB510008BB51000833
:104F4800BB510008BB510008BB510008BB51000809
:104F5800A94F0008BB510008BB510008BB5100080D
:104F6800BB510008BB510008BB510008BB510008E9
:104F7800AF4F0008944B1B6803F02003002B09D0A7
:104F8800914B1B68DB0803F00303904A22FA03F3F2
:104F9800BB6111E18D4BBB610EE18D4BBB610BE138
:104FA8008C4BBB6108E1884B9B6A03F003037B6170
:104FB800854B9B6A1B0903F03F033B61824BDB6A0D
:104FC80003F00103FB60804B5B6BDB08C3F30C034E
:104FD800FA6802FB03F307EE903AF8EE677AC7ED3A
:104FE800027A3B69002B00F0E1807B69022B00F01C
:104FF80083807B69022B00F2A1807B69002B03D0A0
:105008007B69012B56D099E06F4B1B6803F0200396
:10501800002B2DD06C4B1B68DB0803F003036B4A95
:1050280022FA03F37B607B6807EE903AF8EE676A32
:105038003B6907EE903AF8EE677A86EEA77A624BFC
:105048001B6BC3F3080307EE903AF8EE676A97ED17
:10505800026ADFED615AC6EE257A76EEA77AF7EE98
:10506800006A77EEA67A67EE277AC7ED077A87E0B7
:105078003B6907EE903AF8EE677ADFED586A86EEFC
:10508800A77A514B1B6BC3F3080307EE903AF8EE6F
:10509800676A97ED026ADFED505AC6EE257A76EE1A
:1050A800A77AF7EE006A77EEA67A67EE277AC7ED59
:1050B800077A65E03B6907EE903AF8EE677ADFED2C
:1050C800486A86EEA77A404B1B6BC3F3080307EECA
:1050D800903AF8EE676A97ED026ADFED3F5AC6EE3E
:1050E800257A76EEA77AF7EE006A77EEA67A67EE6B
:1050F800277AC7ED077A43E03B6907EE903AF8EE66
:10510800677ADFED386A86EEA77A2F4B1B6BC3F3FD
:10511800080307EE903AF8EE676A97ED026ADFED4A
:105128002E5AC6EE257A76EEA77AF7EE006A77EE63
:10513800A67A67EE277AC7ED077A21E03B6907EE82
:10514800903AF8EE677ADFED266A86EEA77A1E4B6C
:105158001B6BC3F3080307EE903AF8EE676A97ED06
:10516800026ADFED1D5AC6EE257A76EEA77AF7EECB
:10517800006A77EEA67A67EE277AC7ED077A00BF4E
:10518800114B1B6B5B0A03F07F0301333B603B68E9
:1051980007EE903AB8EE677AD7ED076AC6EE877AD7
:1051A800FCEEE77A17EE903ABB6105E00023BB619D
:1051B80002E0074BBB6100BFBB6918462437BD46F8
:1051C8005DF8047B704700BF004402580090D0038C
:1051D80000093D0040787D01000000460024744C21
:1051E8000024744A20BCBE4B80B582B000AFFFF7E4
:1051F80081FE0246104B9B691B0A03F00F030F49FF
:10520800CB5C03F01F0322FA03F37B600A4B9B6914
:1052180003F00F03094AD35C03F01F037A6822FAEC
:1052280003F3074A1360074A7B681360044B1B6843
:1052380018460837BD4680BD00440258C85C0708B8
:10524800040000240000002480B500AFFFF7CCFF65
:105258000246064BDB691B0903F007030449CB5CD4
:1052680003F01F0322FA03F3184680BD00440258D6
:10527800C85C070880B500AFFFF7B6FF0246064BCB
:10528800DB691B0A03F007030449CB5C03F01F0327
:1052980022FA03F3184680BD00440258C85C070888
:1052A8002DE9B04FCAB000AFC7F81401002387F842
:1052B8002731002387F82631D7F81431D3E90023A2
:1052C80002F00064002554EA050349D0D7F81431E8
:1052D8009B6EB3F5401F2FD0B3F5401F28D8B3F508
:1052E800001F1AD0B3F5001F22D8002B03D0B3F546
:1052F800801F07D01CE0B84BDB6AB74A43F4003381
:10530800D3621AE0D7F8143108330221184602F0A4
:1053180061FB034687F827310FE0D7F814312833AB
:105328000221184602F008FC034687F8273104E0FA
:10533800012387F8273100E000BF97F82731002BB9
:105348000AD1A54B1B6D23F44011D7F814319B6E7D
:10535800A14A0B43136503E097F8273187F82631F4
:10536800D7F81431D3E9002302F480784FF000090C
:1053780058EA090347D0D7F814319B6D042B2AD873
:1053880001A252F823F000BFA5530008B353000848
:10539800C9530008E7530008E75300088E4BDB6A3F
:1053A8008D4A43F40033D3621AE0D7F81431083336
:1053B8000021184602F00EFB034687F827310FE05C
:1053C800D7F8143128330021184602F0B5FB0346FC
:1053D80087F8273104E0012387F8273100E000BF70
:1053E80097F82731002B0AD17B4B1B6D23F007015F
:1053F800D7F814319B6D784A0B43136503E097F88F
:10540800273187F82631D7F81431D3E9002302F47D
:10541800007A4FF0000B5AEA0B034CD0D7F814313E
:10542800DB6DB3F5807F30D0B3F5807F29D8C02BF2
:105438002DD0C02B25D8802B18D0802B21D8002B1D
:1054480002D0402B07D01CE0634BDB6A624A43F46E
:105458000033D3621CE0D7F8143108330021184612
:1054680002F0B8FA034687F8273111E0D7F814316B
:1054780028330021184602F05FFB034687F82731DE
:1054880006E0012387F8273102E000BF00E000BFF3
:1054980097F82731002B0AD14F4B1B6D23F4E0718D
:1054A800D7F81431DB6D4C4A0B43136503E097F8CA
:1054B800273187F82631D7F81431D3E9002302F4CD
:1054C8008063C7F808310023C7F80C31D7E94212C6
:1054D8000B46134353D0D7F81431D3F8A830B3F59B
:1054E800000F35D0B3F5000F2ED8B3F5C00F31D06B
:1054F800B3F5C00F28D8B3F5800F1AD0B3F5800FD5
:1055080022D8002B03D0B3F5001F07D01CE0324B84
:10551800DB6A314A43F40033D3621CE0D7F8143114
:1055280008330021184602F055FA034687F8273158
:1055380011E0D7F8143128330021184602F0FCFA9C
:10554800034687F8273106E0012387F8273102E070
:1055580000BF00E000BF97F82731002B0BD11E4B8E
:105568009B6D23F46001D7F81431D3F8A8301A4A98
:105578000B43936503E097F8273187F82631D7F86E
:105588001431D3E9002302F40063C7F80031002383
:10559800C7F80431D7E940120B46134356D0D7F861
:1055A8001431D3F8AC30B3F1806F38D0B3F1806FD9
:1055B80031D8B3F1407F34D0B3F1407F2BD8B3F169
:1055C800007F1DD0B3F1007F25D8002B06D0B3F1A2
:1055D800807F0AD01FE000BF00440258A24BDB6A5C
:1055E800A14A43F40033D3621CE0D7F814310833DE
:1055F8000021184602F0EEF9034687F8273111E03A
:10560800D7F8143128330021184602F095FA0346DA
:1056180087F8273106E0012387F8273102E000BF29
:1056280000E000BF97F82731002B0BD18E4B9B6D04
:1056380023F0E061D7F81431D3F8AC308A4A0B4331
:10564800936503E097F8273187F82631D7F81431A6
:10565800D3E9002302F00073C7F8F8300023C7F835
:10566800FC30D7E93E120B4613433AD0D7F8143131
:10567800DB6C302B1FD0302B19D8202B0CD0202BD3
:1056880015D8002B19D0102B11D1774BDB6A764A2D
:1056980043F40033D36211E0D7F814310833022100
:1056A800184602F097F9034687F8273106E00123E8
:1056B80087F8273102E000BF00E000BF97F82731E4
:1056C800002B0AD1684BDB6C23F03001D7F814317A
:1056D800DB6C654A0B43D36403E097F8273187F8FE
:1056E8002631D7F81431D3E9002302F48053C7F8E0
:1056F800F0300023C7F8F430D7E93C120B461343C7
:1057080051D0D7F814311B6EB3F5804F35D0B3F5AF
:10571800804F2ED8B3F5405F31D0B3F5405F28D81D
:10572800B3F5005F1AD0B3F5005F22D8002B03D081
:10573800B3F5805F07D01CE04B4BDB6A4A4A43F461
:105748000033D3621CE0D7F814310833002118461F
:1057580002F040F9034687F8273111E0D7F81431F1
:1057680028330021184602F0E7F9034687F8273165
:1057780006E0012387F8273102E000BF00E000BF00
:1057880097F82731002B0AD1374B1B6D23F4E041E2
:10579800D7F814311B6E344A0B43136503E097F8AE
:1057A800273187F82631D7F81431D3E9002302F4DA
:1057B8000053C7F8E8300023C7F8EC30D7E93A12AD
:1057C8000B46134356D0D7F814315B6EB3F5A02FB0
:1057D80033D0B3F5A02F2CD8B3F5802F2FD0B3F545
:1057E800802F26D8B3F5403F2BD0B3F5403F20D8C3
:1057F800B3F5003F12D0B3F5003F1AD8002B22D0E2
:10580800B3F5803F15D1D7F8143108330121184674
:1058180002F0E0F8034687F8273115E0D7F814318D
:1058280028330121184602F087F9034687F8273103
:105838000AE0012387F8273106E000BF04E000BF33
:1058480002E000BF00E000BF97F82731002B0DD120
:10585800054B1B6D23F4E021D7F814315B6E024A27
:105868000B43136506E000BF0044025897F8273140
:1058780087F82631D7F81431D3E9002302F480439E
:10588800C7F8E0300023C7F8E430D7E938120B46F0
:10589800134355D0D7F81431D3F8B030B3F1A04F33
:1058A80033D0B3F1A04F2CD8B3F1804F2FD0B3F140
:1058B800804F26D8B3F1405F2BD0B3F1405F20D89A
:1058C800B3F1005F12D0B3F1005F1AD8002B22D0D9
:1058D800B3F1805F15D1D7F8143108330121184688
:1058E80002F078F8034687F8273115E0D7F8143125
:1058F80028330121184602F01FF9034687F827319B
:105908000AE0012387F8273106E000BF04E000BF62
:1059180002E000BF00E000BF97F82731002B0BD151
:10592800A34B9B6D23F0E041D7F81431D3F8B03086
:105938009F4A0B43936503E097F8273187F8263190
:10594800D7F81431D3E9002302F40043C7F8D8305C
:105958000023C7F8DC30D7E936120B46134337D09B
:10596800D7F814311B6FB3F1005F0ED0B3F1005FAD
:1059780016D8002B18D0B3F1805F11D18C4BDB6A9D
:105988008B4A43F40033D3620FE0D7F8143108335D
:105998000121184602F01EF8034687F8273104E073
:1059A800012387F8273100E000BF97F82731002B43
:1059B8000AD17F4B1B6D23F04051D7F814311B6F70
:1059C8007B4A0B43136503E097F8273187F82631A4
:1059D800D7F81431D3E9002302F08073C7F8D03028
:1059E8000023C7F8D430D7E934120B46134339D013
:1059F800D7F814319B6C032B1CD801A252F823F062
:105A0800455A0008195A0008275A0008455A00083C
:105A1800674BDB6A664A43F40033D3620FE0D7F87A
:105A2800143108330221184601F0D4FF034687F8E1
:105A3800273104E0012387F8273100E000BF97F8F9
:105A48002731002B0AD15A4BDB6C23F00301D7F81E
:105A580014319B6C564A0B43D36403E097F8273103
:105A680087F82631D7F81431D3E9002302F48003EC
:105A7800C7F8C8300023C7F8CC30D7E932120B4634
:105A8800134300F09F804B4B1B684A4A43F48073D2
:105A98001360FCF709FDC7F820010BE0FCF704FDD3
:105AA8000246D7F82031D31A642B03D9032387F889
:105AB800273105E03F4B1B6803F48073002BEDD0C2
:105AC80097F82731002B79D1394B1A6FD7F8143151
