:020000040800F2
:1000000000000824551B00089D190008A5190008C8
:10001000AD190008B5190008BD190008000000005E
:10002000000000000000000000000000C5190008EA
:10003000D319000800000000E1190008EF190008BA
:10004000A91B0008A91B0008A91B0008A91B000880
:10005000A91B0008A91B0008A91B0008A91B000870
:10006000A91B0008A91B0008A91B0008A91B000860
:10007000A91B0008A91B0008A91B0008A91B000850
:10008000A91B0008A91B0008A91B0008A91B000840
:10009000A91B0008A91B0008A91B0008A91B000830
:1000A000A91B0008A91B0008A91B0008A91B000820
:1000B000A91B0008A91B0008A91B0008A91B000810
:1000C000A91B0008A91B0008A91B0008A91B000800
:1000D000A91B0008A91B0008A91B0008A91B0008F0
:1000E000A91B0008A91B000800000000A91B0008AC
:1000F000A91B0008A91B0008A91B0008A91B0008D0
:10010000A91B0008A91B0008A91B0008A91B0008BF
:10011000A91B0008A91B0008A91B0008A91B0008AF
:10012000A91B0008A91B0008A91B0008A91B00089F
:10013000A91B0008A91B0008A91B0008A91B00088F
:1001400000000000000000000000000000000000AF
:10015000A91B0008A91B0008A91B0008A91B00086F
:10016000A91B0008A91B0008A91B0008A91B00085F
:10017000A91B0008A91B0008A91B0008000000001B
:10018000A91B0008A91B0008A91B0008A91B00083F
:10019000A91B0008A91B0008A91B0008A91B00082F
:1001A000A91B0008A91B0008A91B0008A91B00081F
:1001B000A91B0008A91B0008A91B0008A91B00080F
:1001C000A91B0008A91B0008A91B0008A91B0008FF
:1001D000A91B0008A91B0008A91B0008A91B0008EF
:1001E000A91B0008A91B0008A91B0008A91B0008DF
:1001F000A91B0008A91B0008A91B0008A91B0008CF
:10020000A91B0008A91B0008A91B0008A91B0008BE
:10021000A91B0008A91B0008A91B0008A91B0008AE
:10022000A91B0008A91B0008A91B0008000000006A
:10023000A91B0008A91B000800000000A91B00085A
:10024000A91B0008A91B0008A91B0008A91B00087E
:10025000A91B0008A91B0008A91B0008A91B00086E
:10026000A91B0008A91B0008A91B0008A91B00085E
:10027000A91B0008A91B0008A91B0008000000001A
:10028000A91B0008A91B0008A91B0008000000000A
:0802900000000000A91B00089A
:1002980010B5054C237833B9044B13B10448AFF3B8
:1002A80000800123237010BD10000024000000000E
:1002B800C0AF000808B5034B1BB103490348AFF3AF
:1002C800008008BD0000000014000024C0AF000832
:1002D80053B94AB9002908BF00281CBF4FF0FF31A5
:1002E8004FF0FF3000F088B9ADF1080C6DE904CE8D
:1002F80000F006F8DDF804E0DDE9022304B07047F9
:100308002DE9F047089D0F4604468C46002B48D13E
:100318008A42164661D9B2FA82F34BB1C3F1200280
:1003280001FA03FC20FA02F29E4042EA0C0C9C40BF
:100338004FEA164EB7B2BCFBFEF1220C0EFB11CCF5
:1003480042EA0C4201FB07F0904209D9B21801F1C8
:10035800FF3C80F0EE80904240F2EB80023932445C
:10036800121AA4B2B2FBFEF00EFB102244EA0244B9
:1003780000FB07F7A74209D9341900F1FF3280F0D2
:10038800DA80A74240F2D7803444023840EA01407C
:10039800E41B00211DB1DC400023C5E90043BDE892
:1003A800F0878B4206D90DB1C5E900010021084646
:1003B800BDE8F087B3FA83F1002948D1BB4202D3E4
:1003C800824200F20781841A67EB030201209446F7
:1003D800002DE4D0C5E9004CE1E7002A00F0928046
:1003E800B2FA82F3002B40F0A8808A1A4FEA164E20
:1003F8001FFA86FC0121200CB2FBFEF70EFB172228
:1004080040EA02420CFB07F0904207D9B21807F104
:10041800FF3802D2904200F2E2804746121AA4B294
:10042800B2FBFEF00EFB102244EA02440CFB00FC77
:10043800A44507D9341900F1FF3202D2A44500F2CD
:10044800CB801046A4EB0C0440EA0740A2E7C1F1B8
:1004580020068B4022FA06FC4CEA030C07FA01F44A
:1004680020FA06F3F7404FEA1C49234300FA01F843
:100478001FFA8CFEB7FBF9F01C0C09FB107744EA55
:10048800074400FB0EF7A74202FA01F20AD91CEB57
:10049800040400F1FF3A80F09B80A74240F2988064
:1004A80002386444E41B9FB2B4FBF9F309FB13441C
:1004B80047EA044403FB0EFEA64509D91CEB0404D5
:1004C80003F1FF3780F08280A6457FD9023B644460
:1004D80043EA0040A4EB0E04A0FB02E7BC427346CB
:1004E800B94663D360D05DB1B8EB030264EB09048D
:1004F80004FA06F622FA01F31E43CC40C5E900646B
:1005080000214CE76208480842EAC1710B0C43EA33
:1005180000438AB242EA0342B3FBF6F1E407B44669
:100528003746B6461F23B0FBF6F0D21B41EA00411E
:1005380061E7614614E7104628E7C3F1200120FA75
:1005480001F29E4027FA01F19F403A434FEA164EC6
:100558001FFA86FCB1FBFEF70EFB1710110C41EADF
:10056800004107FB0CF8884504FA03F43AD97118DE
:1005780007F1FF3001D288451FD8A1EB0801B1FB74
:10058800FEF808FB0CF70EFB181192B242EA014282
:10059800BA422FD2B21808F1FF31C6D2BA42C4D239
:1005A800A8F102013244C0E7F0459CD2BEEB020339
:1005B80067EB0C070138B94695E7A6EB08084144F4
:1005C800B81EB1FBFEF808FB0CF7DCE73B467FE7FB
:1005D800504667E70846FBE63444023832E7023FF4
:1005E80032441BE7A1EB08013846B1FBFEF808FBD3
:1005F8000CF7C8E7414698E7704700BF80B500AFE1
:1006080000F01CFC01F0CEFA00F028F800F03CFBEA
:1006180000F0EAFA00F0DEF800F08EF900F0B8F920
:1006280000F0ECF900F062FA00F0ACFA00F092F891
:100638000021084807F0D2FA064B1B68FA225A63D1
:100648008021054801F09FFE4FF4FA7001F03CFB51
:1006580000BFF5E7F0010024001C025880B59CB0EB
:1006680000AF07F124034C22002118460AF078FC59
:100678003B1D2022002118460AF072FC022002F0DD
:1006880051FB00233B60314B9B69304A43F44043A4
:1006980093612E4B9B6903F440433B602C4BDB6A10
:1006A8002B4A43F00103D362294BDB6A03F00103B1
:1006B8003B603B6800BF254B9B6903F40053B3F5CF
:1006C800005FF8D121237B624FF48033BB620123A2
:1006D800FB630223BB640223FB6405233B65C02341
:1006E8007B650223BB650223FB6502233B66082367
:1006F8007B660023BB660023FB6607F124031846CC
:1007080002F014FC0346002B01D000F0C3FB3F238A
:100718007B600323BB600023FB6008233B6140230D
:100728007B614023BB614FF48063FB6140233B62E4
:100738003B1D0421184603F053F80346002B01D053
:1007480000F0A8FB00BF7037BD4680BD00480258C6
:100758000004005880B500AF1B4B1C4A1A601A4BA6
:100768001B4A5A60184B00229A60174B0122DA6024
:10077800154B00221A61144B00225A61124B0022B9
:100788009A61114B0022DA610F4B00221A620E485F
:1007980001F014FE0346002B01D000F07BFB002182
:1007A800094801F0A7FE0346002B01D000F072FBB8
:1007B8000021054801F0E9FE0346002B01D000F0B6
:1007C80069FB00BF80BD00BF2C000024005400401E
:1007D800B175703080B59AB000AF07F13403342298
:1007E800002118460AF0BCFB3B463422002118467B
:1007F8000AF0B6FB4E4B4F4A1A604D4B00225A6026
:100808004B4B00229A604A4B0022DA60484B002288
:100818001A61474B09225A61454B09229A61444B98
:100828003722DA61424B2A221A62414B40F2573290
:100838005A623F4B40F20A229A623D4B40F22942EB
:10084800DA623B4B4FF408721A63394B002283F883
:100858003420374B002283F83520354B002283F8AB
:100868003620334801F0DDFE0346002B01D000F0AE
:1008780011FB00237B630023BB630023FB6300237E
:100888003B6400237B640023BB640023FB644FF4B8
:1008980080633B6505237B650023BB650023FB65FF
:1008A80000233B66002387F86430002387F865300F
:1008B800002387F8663007F13403002219461C48E4
:1008C80001F04CFF0346002B01D000F0E3FA0023AF
:1008D8003B6000237B600023BB600023FB60002398
:1008E8003B6100237B610023BB614FF48063FB61A4
:1008F80005233B6200237B620023BB620023FB626B
:10090800002387F83030002387F83130002387F838
:1009180032303B4601221946054801F01FFF0346C5
:10092800002B01D000F0B6FA00BF6837BD4680BD85
:10093800800000240010005080B500AF124B134A0D
:100948001A60114BFF225A600F4B01229A600E4B1E
:100958000022DA600C4B01221A610B4B00225A610B
:10096800094B00229A61084B0022DA61064B0022EB
:100978001A62054802F020FA0346002B01D000F065
:1009880089FA00BF80BD00BF280100240050005232
:1009980080B500AF164B174A1A60154B00225A60F3
:1009A800134B00229A60124B4FF48042DA60104BCE
:1009B80000221A610E4B00225A610D4805F09AFF79
:1009C8000346002B0ED10C4B01221A704FF48041C4
:1009D800074806F023FB0346002B06D0064B0022EF
:1009E8001A7002E0044B00221A7000BF80BD00BFDD
:1009F8007401002400700052E807002480B58EB00E
:100A080000AF07F1280300221A605A609A60DA6082
:100A180007F11C0300221A605A609A603B460022C4
:100A28001A605A609A60DA601A615A619A612D4BAD
:100A38002D4A1A602B4BEF225A602A4B00229A60EB
:100A4800284B40F2F312DA60264B00221A61254B3C
:100A580080229A61234807F009F80346002B01D049
:100A680000F018FA4FF48053BB6207F128031946C7
:100A78001C4807F0D5FA0346002B01D000F00AFA0B
:100A8800184807F04AF80346002B01D000F002FA94
:100A98000023FB6100237B6207F11C031946114800
:100AA80008F02CF80346002B01D000F0F3F960237E
:100AB8003B6040F2F3137B600023BB6000233B6183
:100AC8003B4600221946074807F096F90346002BD3
:100AD80001D000F0DFF9034800F086FD00BF383789
:100AE800BD4680BDF00100240018004080B500AF6D
:100AF800224B234A1A60214B4FF4E1325A601F4BB4
:100B080000229A601D4B0022DA601C4B00221A61F9
:100B18001A4B0C225A61194B00229A61174B00227A
:100B2800DA61164B00221A62144B00225A62134BE8
:100B380000229A62114808F06FF80346002B01D092
:100B480000F0A8F900210D4809F077F80346002BBA
:100B580001D000F09FF90021084809F0ACF80346DD
:100B6800002B01D000F096F9044809F02DF803464F
:100B7800002B01D000F08EF900BF80BD3C0200249C
:100B88000010014080B500AF154B164A1A60144B8F
:100B980009221A71124B0222DA71114B00229A7142
:100BA8000F4B02225A720E4B00229A720C4B0022F3
:100BB800DA720B4B00221A73094B00225A73084B46
:100BC80000229A73064B0022DA73054801F07AFF77
:100BD8000346002B01D000F05DF900BF80BD00BFC7
:100BE800D00200240000084080B588B000AF3B1D4B
:100BF80000221A605A609A60DA601A615A619A6132
:100C08001F4B204A1A601E4B00225A601C4B0122BF
:100C18009A601B4B0822DA60194B10221A61184B94
:100C280040225A61164B4FF4C0729A61144B00224D
:100C3800DA61134B4FF400621A62114B4FF4805281
:100C48005A620F4B00229A6202237B600923BB6021
:100C58000623FB6008233B6103237B610323BB61FD
:100C68000323FB613B1D1946054806F0C3FE0346F6
:100C7800002B01D000F00EF900BF2037BD4680BD23
:100C8800B40700244041005280B58EB000AF07F190
:100C9800240300221A605A609A60DA601A61634B72
:100CA800D3F8E030614A43F01003C2F8E0305F4BFC
:100CB800D3F8E03003F010033B623B6A5B4BD3F898
:100CC800E0305A4A43F48073C2F8E030574BD3F807
:100CD800E03003F48073FB61FB69544BD3F8E030D8
:100CE800524A43F02003C2F8E030504BD3F8E030CA
:100CF80003F02003BB61BB694C4BD3F8E0304B4A8F
:100D080043F08003C2F8E030484BD3F8E03003F0FA
:100D180080037B617B69454BD3F8E030434A43F05D
:100D28000103C2F8E030414BD3F8E03003F001038F
:100D38003B613B693D4BD3F8E0303C4A43F002034A
:100D4800C2F8E030394BD3F8E03003F00203FB601F
:100D5800FB68364BD3F8E030344A43F04003C2F81E
:100D6800E030324BD3F8E03003F04003BB60BB689F
:100D78002E4BD3F8E0302D4A43F00803C2F8E03098
:100D88002A4BD3F8E03003F008037B607B68274BDD
:100D9800D3F8E030254A43F00403C2F8E030234B8F
:100DA800D3F8E03003F004033B603B6800224FF4C3
:100DB80010611F4801F0CEFA002290211D4801F071
:100DC800C9FA002208211C4801F0C4FA4FF4106344
:100DD8007B620123BB620023FB6200233B6307F1B4
:100DE80024031946124801F0FBF890237B62012383
:100DF800BB620023FB6200233B6307F1240319460F
:100E08000C4801F0EDF808237B620123BB62002344
:100E1800FB6200233B6307F124031946064801F0EF
:100E2800DFF800BF3837BD4680BD00BF0044025818
:100E380000200258001C02580018025880B584B0DF
:100E480000AF3B4600221A605A609A60DA6001F0EF
:100E58004FF801233B7000237B7000237B601F2326
:100E68003B7287237B720023BB720023FB72012332
:100E78003B7301237B730023BB730023FB733B4647
:100E8800184601F06DF8042001F04AF800BF103749
:100E9800BD4680BD80B500AF72B600BF8021044852
:100EA80001F071FA642000F00FFF00BFF6E700BF01
:100EB800001C025880B483B000AF0A4BD3F8F4305A
:100EC800084A43F00203C2F8F430064BD3F8F43072
:100ED80003F002037B607B6800BF0C37BD465DF8FA
:100EE800047B70470044025880B5BAB000AF786000
:100EF80007F1D40300221A605A609A60DA601A6116
:100F080007F11003C022002118460AF029F87B686F
:100F18001B68274A934246D14FF008024FF000035E
:100F2800C7E904230023C7F8943007F110031846D3
:100F380002F0E2FF0346002B01D0FFF7ABFF1D4B89
:100F4800D3F8E0301B4A43F00203C2F8E030194BF3
:100F5800D3F8E03003F00203FB60FB684FF4C07382
:100F6800C7F8D4301223C7F8D8300023C7F8DC30CC
:100F78000023C7F8E0300423C7F8E43007F1D403AE
:100F880019460D4801F02CF80A4BD3F8E830094A05
:100F980043F40013C2F8E830064BD3F8E83003F402
:100FA8000013BB60BB6800BFE837BD4680BD00BF0B
:100FB80000540040004402580004025880B5C0B0F4
:100FC80000AF786007F1EC0300221A605A609A605B
:100FD800DA601A6107F12803C0220021184609F0D7
:100FE800BFFF7B681B68B14A934240F05A814FF0BB
:100FF80000524FF00003C7E90A2319233B65C023B9
:101008007B650223BB650223FB6506233B66002341
:101018007B660023BB660023FB6607F1280318469E
:1010280002F06AFF0346002B01D0FFF733FFA04B05
:10103800D3F8E4309E4A43F00803C2F8E4309C4BEE
:10104800D3F8E43003F008037B627B6A984BD3F84B
:10105800E030974A43F01003C2F8E030944BD3F8DD
:10106800E03003F010033B623B6A914BD3F8E03069
:101078008F4A43F48073C2F8E0308D4BD3F8E030E8
:1010880003F48073FB61FB69894BD3F8E030884A2D
:1010980043F02003C2F8E030854BD3F8E03003F08A
:1010A8002003BB61BB69824BD3F8E030804A43F030
:1010B8000103C2F8E0307E4BD3F8E03003F00103BF
:1010C8007B617B697A4BD3F8E030794A43F080033F
:1010D800C2F8E030764BD3F8E03003F080033B6190
:1010E8003B69734BD3F8E030714A43F04003C2F8D0
:1010F800E0306F4BD3F8E03003F04003FB60FB684F
:101108006B4BD3F8E0306A4A43F00803C2F8E0308A
:10111800674BD3F8E03003F00803BB60BB6860237B
:10112800C7F8EC300223C7F8F0300023C7F8F430D2
:101138000023C7F8F8300E23C7F8FC3007F1EC039A
:1011480019465C4800F04CFF4FF4C063C7F8EC3018
:101158000223C7F8F0300023C7F8F4300323C7F898
:10116800F8300E23C7F8FC3007F1EC031946524853
:1011780000F036FF4FF48063C7F8EC300223C7F85D
:10118800F0300023C7F8F4300023C7F8F8300E23F6
:10119800C7F8FC3007F1EC031946484800F020FF77
:1011A8000423C7F8EC300223C7F8F0300023C7F84F
:1011B800F4300023C7F8F8300E23C7F8FC3007F1E5
:1011C800EC0319463E4800F00BFF4FF47F43C7F885
:1011D800EC300223C7F8F0300023C7F8F4300023BE
:1011E800C7F8F8300E23C7F8FC3007F1EC031946AE
:1011F800344800F0F5FE47F2C003C7F8EC3002238C
:10120800C7F8F0300023C7F8F4300023C7F8F830E7
:101218000E23C7F8FC3007F1EC0319462A4800F002
:10122800DFFE4FF48073C7F8EC300223C7F8F030C4
:101238000023C7F8F4300023C7F8F8300D23C7F8A7
:10124800FC3007F1EC0319461D4800F0C9FEF723EE
:10125800C7F8EC300223C7F8F0300023C7F8F430A1
:101268000023C7F8F8300E23C7F8FC3007F1EC0369
:101278001946114800F0B4FE4023C7F8EC300223A9
:10128800C7F8F0300023C7F8F4300023C7F8F83067
:101298000E23C7F8FC3007F1EC0319460B4800F0A1
:1012A8009FFE00BF07F58077BD4680BD0010005047
:1012B8000044025800100258002002580014025836
:1012C80000000258001C025800180258000C02586E
:1012D80080B5BCB000AF786007F1DC0300221A606B
:1012E8005A609A60DA601A6107F11803C022002177
:1012F800184609F035FE7B681B68554A934240F052
:10130800A3804FF000724FF00003C7E906230023C3
:101318007B6607F11803184602F0EEFD0346002B22
:1013280001D0FFF7B7FD4B4BD3F8D430494A43F40B
:101338008043C2F8D430474BD3F8D43003F4804309
:101348007B617B69434BD3F8E030424A43F010039A
:10135800C2F8E0303F4BD3F8E03003F010033B61B4
:101368003B693C4BD3F8E0303A4A43F00203C2F8F9
:10137800E030384BD3F8E03003F00203FB60FB6841
:10138800344BD3F8E030334A43F00803C2F8E03076
:10139800304BD3F8E03003F00803BB60BB6804238C
:1013A800C7F8DC300223C7F8E0300023C7F8E43080
:1013B8000023C7F8E8300923C7F8EC3007F1DC034D
:1013C8001946254800F00CFE0423C7F8DC30022338
:1013D800C7F8E0300023C7F8E4300023C7F8E83046
:1013E8000923C7F8EC3007F1DC0319461B4800F065
:1013F800F7FD4FF46053C7F8DC300223C7F8E0303C
:101408000023C7F8E4300023C7F8E8300923C7F8F9
:10141800EC3007F1DC031946114800F0E1FD4023E8
:10142800C7F8DC300223C7F8E0300023C7F8E430FF
:101438000023C7F8E8300A23C7F8EC3007F1DC03CB
:101448001946064800F0CCFD00BFF037BD4680BD08
:10145800005000520044025800100258000402587C
:10146800000C025880B5BCB000AF786007F1DC030F
:1014780000221A605A609A60DA601A6107F118034C
:10148800C0220021184609F06BFD7B681B68414AA1
:1014980093427AD14FF480324FF00003C7E9062314
:1014A80010233B6280237B620223BB620223FB6220
:1014B80002233B6300237B630023BB630023FB639E
:1014C8004FF48033BB6607F11803184602F014FD89
:1014D8000346002B01D0FFF7DDFC2F4BD3F8D430A7
:1014E8002D4A43F48033C2F8D4302B4BD3F8D43090
:1014F80003F480337B617B69274BD3F8E030264ABD
:1015080043F00403C2F8E030234BD3F8E03003F093
:1015180004033B613B69204BD3F8E0301E4A43F09B
:101528000803C2F8E0301C4BD3F8E03003F008039E
:10153800FB60FB684FF4F853C7F8DC300223C7F8A8
:10154800E0300023C7F8E4300323C7F8E8300C2361
:10155800C7F8EC3007F1DC031946104800F040FDED
:101568000423C7F8DC300223C7F8E0300023C7F8AB
:10157800E4300323C7F8E8300C23C7F8EC3007F150
:10158800DC031946064800F02BFD00BFF037BD46C6
:1015980080BD00BF00700052004402580008025885
:1015A800000C025880B485B000AF78607B681B6877
:1015B8000B4A93420ED10B4BD3F8E830094A43F05B
:1015C8004003C2F8E830074BD3F8E83003F0400393
:1015D800FB60FB6800BF1437BD465DF8047B7047AD
:1015E800001800400044025880B588B000AF786009
:1015F80007F10C0300221A605A609A60DA601A61D7
:101608007B681B68124A93421ED1124BD3F8E03014
:10161800104A43F08003C2F8E0300E4BD3F8E030B4
:1016280003F08003BB60BB684023FB6002233B617F
:1016380000237B610023BB610223FB6107F10C03DC
:101648001946054800F0CCFC00BF2037BD4680BDD8
:101658000018004000440258001C025880B5BAB077
:1016680000AF786007F1D40300221A605A609A60CC
:10167800DA601A6107F11003C0220021184609F048
:101688006FFC7B681B68274A934246D14FF00102E2
:101698004FF00003C7E904230023C7F88C3007F193
:1016A8001003184602F028FC0346002B01D0FFF770
:1016B800F1FB1D4BD3F8F0301B4A43F01003C2F87E
:1016C800F030194BD3F8F03003F01003FB60FB68DF
:1016D800154BD3F8E030144A43F00103C2F8E03068
:1016E800114BD3F8E03003F00103BB60BB684FF443
:1016F800C063C7F8D4300223C7F8D8300023C7F82E
:10170800DC300023C7F8E0300723C7F8E43007F1DE
:10171800D4031946054800F063FC00BFE837BD460E
:1017280080BD00BF0010014000440258000002586C
:1017380080B5BAB000AF786007F1D40300221A6010
:101748005A609A60DA601A6107F11003C02200211A
:10175800184609F005FC7B681B68284A934249D162
:101768004FF480224FF00003C7E904234FF44013DD
:10177800C7F8983007F11003184602F0BDFB03467E
:10178800002B01D0FFF786FB01F006FB1C4BD3F8BA
:10179800E0301B4A43F00103C2F8E030184BD3F89D
:1017A800E03003F00103FB60FB684FF4C053C7F857
:1017B800D4300223C7F8D8300023C7F8DC30002320
:1017C800C7F8E0300A23C7F8E43007F1D403194614
:1017D8000C4800F005FC0A4BD3F8D830084A43F00F
:1017E8000063C2F8D830064BD3F8D83003F0006352
:1017F800BB60BB6800BFE837BD4680BD000008403D
:10180800004402580000025880B5B8B000AF07F194
:10181800CC0300221A605A609A60DA601A61514B50
:101828001B68002B40F099804E4B01221A6007F18B
:101838000803C0220021184609F092FB4FF080727D
:101848004FF00003C7E9022300233B6507F10803B3
:10185800184602F051FB0346002B01D0FFF71AFB94
:10186800414BD3F8D430404A43F48053C2F8D430C3
:101878003D4BD3F8D43003F480537B607B684FF63C
:101888003F03C7F8CC300223C7F8D0300023C7F88D
:10189800D4300323C7F8D8300C23C7F8DC3007F15D
:1018A800CC031946314800F09BFB2C23C7F8CC30F9
:1018B8000223C7F8D0300023C7F8D4300323C7F871
:1018C800D8300C23C7F8DC3007F1CC031946284878
:1018D80000F086FB48F23713C7F8CC300223C7F86C
:1018E800D0300023C7F8D4300323C7F8D8300C23EE
:1018F800C7F8DC3007F1CC0319461E4800F070FB2E
:101908004FF68373C7F8CC300223C7F8D0300023D2
:10191800C7F8D4300323C7F8D8300C23C7F8DC3015
:1019280007F1CC031946144800F05AFB4CF2037334
:10193800C7F8CC300223C7F8D0300023C7F8D4301A
:101948000323C7F8D8300C23C7F8DC3007F1CC03E1
:1019580019460A4800F044FB00E000BFE037BD46E6
:1019680080BD00BFEC070024004402580014025850
:10197800001C02580018025800100258000C0258A7
:1019880080B582B000AF7860FFF73EFF00BF083730
:10199800BD4680BD80B400AF00BFFDE780B400AF96
:1019A80000BFFDE780B400AF00BFFDE780B400AF23
:1019B80000BFFDE780B400AF00BFFDE780B400AF13
:1019C80000BFBD465DF8047B704780B400AF00BF20
:1019D800BD465DF8047B704780B400AF00BFBD46CC
:1019E8005DF8047B704780B500AF00F04DF900BF8B
:1019F80080BD000080B400AF434BD3F88830424A22
:101A080043F47003C2F88830404B1B6803F00F039F
:101A1800062B07D83D4B1B6823F00F033B4A43F0C6
:101A2800070313603A4B1B68394A43F001031360FC
:101A3800374B00221A61364B1A683549354B13402B
:101A48000B60324B1B6803F00803002B07D02F4BA9
:101A58001B6823F00F032D4A43F0070313602C4B38
:101A680000229A612A4B0022DA61294B00221A626D
:101A7800274B294A9A62264B284ADA62244B284A7D
:101A88001A63234B00225A63214B254A9A63204B41
:101A98000022DA631E4B224A1A641D4B00225A6444
:101AA8001B4B1B681A4A23F480231360184B00222F
:101AB8001A661C4B1A681C4B1340B3F1005F02D224
:101AC8001A4B01221A60124BD3F8D43003F4805316
:101AD800002B13D10E4BD3F8D4300D4A43F4805366
:101AE800C2F8D430124B43F2D2021A60084BD3F832
:101AF800D430074A23F48053C2F8D43000BFBD461F
:101B08005DF8047B704700BF00ED00E00020005244
:101B1800004402587FEDF6EA000202020000FF01CD
:101B2800800201010010005C0000FFFF08810051E5
:101B380000400052044BDA6842F00202DA605A6848
:101B48009204FCD5704700BF00480258DFF838D02F
:101B5800FFF7F0FFFFF74EFF0C480D490D4A002331
:101B680002E0D458C4500433C4188C42F9D30A4A4A
:101B78000A4C002301E013600432A242FBD309F0AF
:101B8800F7F9FEF73BFDFEE70000082400000024FB
:101B98001000002420B0000810000024F4070024DE
:101BA800FEE7000080B582B000AF032000F06EF9B8
:101BB80001F0CCFF0246154B9B691B0A03F00F038B
:101BC8001349CB5C03F01F0322FA03F37B600F4B2E
:101BD8009B6903F00F030E4AD35C03F01F037A6876
:101BE80022FA03F30B4A13600B4A7B6813600F2039
:101BF80000F014F80346002B01D0012302E0FFF7A0
:101C080059F9002318460837BD4680BD00440258DC
:101C1800D8AF0008040000240000002480B582B07A
:101C280000AF7860154B1B78002B01D1012321E010
:101C3800134B1A68114B1B7819464FF47A73B3FB90
:101C4800F1F3B2FBF3F3184600F045F90346002B15
:101C580001D001230EE07B680F2B0AD80022796897
:101C68004FF0FF3000F01DF9064A7B68136000232F
:101C780000E0012318460837BD4680BD0C0000244B
:101C8800000000240800002480B400AF064B1B7835
:101C98001A46064B1B681344044A136000BFBD462E
:101CA8005DF8047B704700BF0C000024F007002497
:101CB80080B400AF034B1B681846BD465DF8047B33
:101CC800704700BFF007002480B584B000AF78608B
:101CD800FFF7EEFFB8607B68FB60FB68B3F1FF3F7E
:101CE80005D00A4B1B781A46FB681344FB6000BFFB
:101CF800FFF7DEFF0246BB68D31AFA689A42F7D8A4
:101D080000BF00BF1037BD4680BD00BF0C000024D7
:101D180080B400AF034B1B681B0C1846BD465DF82A
:101D2800047B70470010005C80B485B000AF786019
:101D38007B6803F00703FB600B4BDB68BB60BA688A
:101D48004FF6FF031340BB60FB681A02BB681A43D7
:101D5800064B1343BB60044ABB68D36000BF14370B
:101D6800BD465DF8047B704700ED00E00000FA0511
:101D780080B400AF044BDB681B0A03F00703184666
:101D8800BD465DF8047B704700ED00E080B483B089
:101D980000AF03463960FB80B7F90630002B0ADB39
:101DA8003B68DAB20C49B7F906301201D2B20B44DB
:101DB80083F800230AE03B68DAB20849FB8803F09D
:101DC8000F03043B1201D2B20B441A7600BF0C3742
:101DD800BD465DF8047B704700E100E000ED00E0DF
:101DE80080B489B000AFF860B9607A60FB6803F02E
:101DF8000703FB61FB69C3F10703042B28BF042316
:101E0800BB61FB690433062B02D9FB69033B00E085
:101E180000237B614FF0FF32BB6902FA03F3DA4318
:101E2800BB681A407B699A404FF0FF317B6901FA21
:101E380003F3D9437B680B40134318462437BD4648
:101E48005DF8047B7047000080B582B000AF786011
:101E58007B68013BB3F1807F01D301230FE00A4A7D
:101E68007B68013B53600F214FF0FF30FFF78EFF77
:101E7800054B00229A60044B07221A60002318467B
:101E88000837BD4680BD00BF10E000E080B582B0D5
:101E980000AF78607868FFF747FF00BF0837BD4696
:101EA80080BD80B586B000AF0346B9607A60FB811B
:101EB800FFF75EFF78617A68B9687869FFF790FF85
:101EC8000246B7F90E3011461846FFF75FFF00BF0C
:101ED8001837BD4680BD80B582B000AF786078689D
:101EE800FFF7B2FF034618460837BD4680BD00001D
:101EF80080B400AFBFF35F8F00BF074B5B6A064A31
:101F080023F480335362054B00225A6000BFBD465C
:101F18005DF8047B704700BF00ED00E090ED00E045
:101F280080B483B000AF78600B4A7B6843F001034C
:101F380053600A4B5B6A094A43F480335362BFF328
:101F48004F8F00BFBFF36F8F00BF00BF0C37BD4678
:101F58005DF8047B704700BF90ED00E000ED00E005
:101F680080B483B000AF78607B685A781B4B9A6066
:101F78001A4B1B69194A23F001031361174A7B683E
:101F88005B68D3607B681B7B1A077B68DB7A1B0660
:101F98001A437B689B7ADB041A437B685B7B9B0450
:101FA8001A437B689B7B5B041A437B68DB7B1B04BF
:101FB8001A437B685B7A1B021A437B681B7A5B00B7
:101FC80013437A6812781146044A0B43136100BF21
:101FD8000C37BD465DF8047B704700BF90ED00E00C
:101FE80080B489B000AF786039600023FB618E4B04
:101FF8007B619EE13B681A680121FB6901FA03F3E2
:1020080013403B613B69002B00F090813B685B68A3
:1020180003F00303012B05D03B685B6803F003035F
:10202800022B30D17B689B68BB61FB695B00032294
:1020380002FA03F3DB43BA691340BB613B68DA6811
:10204800FB695B0002FA03F3BA691343BB617B685F
:10205800BA699A607B685B68BB610122FB6902FA16
:1020680003F3DB43BA691340BB613B685B681B0938
:1020780003F00102FB6902FA03F3BA691343BB6177
:102088007B68BA695A603B685B6803F00303032BFB
:1020980009D13B685B6803F00303032B1BD13B6842
:1020A8009B68012B17D07B68DB68BB61FB695B0011
:1020B800032202FA03F3DB43BA691340BB613B68AE
:1020C8009A68FB695B0002FA03F3BA691343BB61C0
:1020D8007B68BA69DA603B685B6803F00303022B2C
:1020E80023D1FB69DA087B68083253F82230BB61D8
:1020F800FB6903F007039B000F2202FA03F3DB439B
:10210800BA691340BB613B681A69FB6903F00703AE
:102118009B0002FA03F3BA691343BB61FB69DA084F
:102128007B680832B96943F822107B681B68BB6179
:10213800FB695B00032202FA03F3DB43BA6913402D
:10214800BB613B685B6803F00302FB695B0002FA52
:1021580003F3BA691343BB617B68BA691A603B68C9
:102168005B6803F44033002B00F0E0802F4BD3F87A
:10217800F4302E4A43F00203C2F8F4302B4BD3F864
:10218800F43003F00203FB60FB68294AFB699B08F3
:10219800023352F82330BB61FB6903F003039B0051
:1021A8000F2202FA03F3DB43BA691340BB617B6871
:1021B800204A934252D07B681F4A934231D07B68B1
:1021C8001E4A93422BD07B681D4A934225D07B68D8
:1021D8001C4A93421FD07B681B4A934219D07B68E4
:1021E8001A4A934213D07B68194A93420DD07B68F0
:1021F800184A934207D07B68174A934201D10923B2
:102208002DE00A232BE0082329E0072327E00623F3
:1022180025E0052323E0042321E003231FE0022314
:102228001DE001231BE000BF800000580044025855
:102238000004005800000258000402580008025820
:10224800000C0258001002580014025800180258D6
:10225800001C025800200258002402580023FA6982
:1022680002F0030292009340BA691343BB613849F4
:10227800FB699B080233BA6941F823204FF0B04349
:102288001B68BB613B69DB43BA691340BB613B68B0
:102298005B6803F48013002B03D0BA693B691343CE
:1022A800BB614FF0B042BB6913604FF0B0435B684D
:1022B800BB613B69DB43BA691340BB613B685B6840
:1022C80003F40013002B03D0BA693B691343BB61C5
:1022D8004FF0B042BB6953607B695B68BB613B6987
:1022E800DB43BA691340BB613B685B6803F40033A6
:1022F800002B03D0BA693B691343BB617B69BA6998
:102308005A607B691B68BB613B69DB43BA69134050
:10231800BB613B685B6803F48033002B03D0BA6968
:102328003B691343BB617B69BA691A60FB69013376
:10233800FB613B681A68FB6922FA03F3002B7FF400
:1023480059AE00BF00BF2437BD465DF8047B704717
:102358000004005880B483B000AF78600B467B80DF
:1023680013467B707B78002B03D07A887B689A6150
:1023780003E07B881A047B689A6100BF0C37BD466E
:102388005DF8047B704780B485B000AF78600B4679
:102398007B807B685B69FB607A88FB6813401A0462
:1023A800FB68D9437B880B401A437B689A6100BF5E
:1023B8001437BD465DF8047B7047000080B582B0D5
:1023C80000AF78607B68002B01D101238BE07B682C
:1023D80093F84130DBB2002B06D17B68002283F8EA
:1023E80040207868FEF780FD7B68242283F841202E
:1023F8007B681B681A687B681B6822F001021A60F8
:102408007B685A687B681B6822F070621A617B6877
:102418001B689A687B681B6822F400429A607B6894
:10242800DB68012B07D17B689A687B681B6842F4DC
:1024380000429A6006E07B689A687B681B6842F4F1
:1024480004429A607B68DB68022B08D17B681B68B2
:102458005A687B681B6842F400625A6007E07B6830
:102468001B685A687B681B6822F400625A607B68A4
:102478001B6859687B681A681D4B0B4353607B685F
:102488001B68DA687B681B6822F40042DA607B68A4
:102498001A697B685B6942EA03017B689B691A02D7
:1024A8007B681B680A43DA607B68D9697B681A6AAB
:1024B8007B681B680A431A607B681B681A687B681C
:1024C8001B6842F001021A607B6800225A647B682C
:1024D800202283F841207B6800221A637B6800224F
:1024E80083F84220002318460837BD4680BD00BF48
:1024F8000080000280B483B000AF786039607B68E8
:1025080093F84130DBB2202B38D17B6893F8403008
:10251800012B01D1022332E07B68012283F840209D
:102528007B68242283F841207B681B681A687B68D3
:102538001B6822F001021A607B681B681A687B68B6
:102548001B6822F480521A607B681B6819687B68D4
:102558001B683A680A431A607B681B681A687B68BC
:102568001B6842F001021A607B68202283F8412030
:102578007B68002283F84020002300E002231846ED
:102588000C37BD465DF8047B704780B485B000AF5A
:10259800786039607B6893F84130DBB2202B39D101
:1025A8007B6893F84030012B01D1022333E07B682C
:1025B800012283F840207B68242283F841207B682D
:1025C8001B681A687B681B6822F001021A607B6826
:1025D8001B681B68FB60FB6823F47063FB603B6847
:1025E8001B02FA681343FB607B681B68FA681A6071
:1025F8007B681B681A687B681B6842F001021A60D6
:102608007B68202283F841207B68002283F84020E1
:10261800002300E0022318461437BD465DF8047B0A
:10262800704780B584B000AF78607B68002B01D11B
:1026380001238FE07B6893F8A130DBB2002B06D131
:102648007B68002283F8A0207868FEF7B7FC7B68D7
:10265800022283F8A1207B681B689A697B681B6843
:1026680022F070429A617B681B6899697B685A6896
:102678007B689B681A437B68DB681A437B681B6925
:102688001A437B681B680A439A617B685B691B0471
:10269800FB607B6899697B681B68FA680A439A60E3
:1026A8007B68DB691B04FB607B68196A7B681B68B5
:1026B800FA680A43DA607B685B6A1B04FB607B6824
:1026C800996A7B681B68FA680A431A617B68DB6A47
:1026D8001B04FB607B68196B7B681B68FA680A43FC
:1026E8005A617B6893F835301B02FB607B6893F86E
:1026F80036301B04BB607B681B68DA6A7B681B6822
:1027080002F07F42DA627B681B68D96ABA68FB68A4
:1027180013437A6892F834201A437B681B680A438B
:10272800DA627B681B685A6B7B681B6842F006029A
:102738005A637B681B689A697B681B6842F00102D0
:102748009A617B680022C3F8A4207B68012283F881
:10275800A120002318461037BD4680BDB0B584B00F
:1027680000AFF860B9607A60FB6893F8A030012B7D
:1027780001D102232CE0FB68012283F8A020FB682A
:10278800022283F8A120FA687B68342101FB03F355
:10279800134403F13802BB6814461D460FCD0FC41D
:1027A8000FCD0FC40FCD0FC42B6823607A68B968AA
:1027B800F86800F011F8FB681B6801225A62FB6890
:1027C800012283F8A120FB68002283F8A0200023BF
:1027D80018461037BD46B0BD80B489B000AFF86068
:1027E800B9607A60BB685A68FB681B68DB681B0CB9
:1027F800C3F30B0313441B04FB61FB681B681A46F5
:102808007B68DB01134484335B68FA6812681146FD
:102818007A68D2010A44843203F470435360BB6877
:102828001A68FB681B68DB681B0CC3F30B031344B3
:102838005A1CFB681B6819467B68DB010B44843310
:102848001946FB6913434B60BB68DA68FB681B6871
:10285800DB68C3F30A0313441B04FB61FB681B68B2
:102868001A467B68DB01134484339B68FA68126854
:1028780011467A68D2010A44843203F470439360A3
:10288800BB689A68FB681B68DB68C3F30A031344D8
:102898005A1CFB681B6819467B68DB010B448433B0
:1028A8001946FB6913438B60FB681B681A467B68F3
:1028B800DB01134484331B69FA68126811467A688D
:1028C800D2010A44843223F007031361FB681B68B2
:1028D8001A467B68DB01134484331A46BB681B69BC
:1028E8001361BB6893F831301B02FB61BB6893F836
:1028F80032301B04BB61BB689B691B067B61BB68EC
:1029080093F830301A46FB691A43BB691A43FB68CF
:102918001B6819467B68DB010B44843319467B69C5
:1029280013438B61FB681B681A467B68DB01134401
:1029380084335B69FA68126811467A68D2010A44DE
:10294800843223F0FF035361FB681B681A467B68D7
:10295800DB01134484331A46BB685B695361FB6827
:102968001B681A467B68DB0113448433DA69FB6809
:102978001B6819467B68DB010B44843319464F4BAF
:102988001340CB61BB68DA69BB681B6AF9680968E0
:1029980008467968C901014484311343CB61FB6857
:1029A8001B681A467B68DB01134484331A46BB68EC
:1029B8005B6A9362BB681B69002B02D10423FB612D
:1029C8001BE0BB681B69012B02D10323FB6114E0E8
:1029D800BB681B69042B0BD0BB681B69022B07D093
:1029E800BB681B69032B03D0BB681B69072B02D18B
:1029F8000223FB6101E00123FB61FB681B681A46A7
:102A08007B68DB0113448433DB6AFA681268114679
:102A18007A68D2010A44843203F0E023D362BB68A7
:102A28009B6AFA6902FB03F31A04BB685968BB681E
:102A38001B68CB1AF96901FB03F30733F9680968C6
:102A480008467968C901014484311343CB62FB68A5
:102A58001B681A467B68DB01134484331A6BFB68D6
:102A68001B6819467B68DB010B4484331946144BF9
:102A780013400B63FB681B681A467B68DB01134431
:102A880084331A46BB68DB6A1363FB681B681A4603
:102A98007B68DB01134484331B68FA6812681146AB
:102AA8007A68D2010A44843243F00103136000BFFC
:102AB8002437BD465DF8047B704700BFF8F8FFFF78
:102AC80000F8FFFF80B586B002AF78607B68002B06
:102AD80001D10123FEE07B6893F89534DBB2002B2B
:102AE80006D17B68002283F894247868FEF720FEDC
:102AF8007B68032283F895247B681B68184607F0D7
:102B080093FF7B6818687B681A7C8DF80020043373
:102B18000ECB07F011FF0346002B05D07B6802227D
:102B280083F895240123D5E07B681B6800211846AB
:102B380007F08BFF0346002B05D07B68022283F841
:102B480095240123C6E00023FB734AE0FA7B7968E9
:102B58001346DB0013449B000B44153301221A7003
:102B6800FA7B79681346DB0013449B000B4414334B
:102B7800FA7B1A70FA7BFB7B98B279681346DB0004
:102B880013449B000B442E3302461A80FA7B796863
:102B98001346DB0013449B000B44183300221A70C1
:102BA800FA7B79681346DB0013449B000B441C3303
:102BB80000221A60FA7B79681346DB0013449B00F5
:102BC8000B44203300221A60FA7B79681346DB0035
:102BD80013449B000B44243300221A60FB7B01330F
:102BE800FB737B681B79FA7B9A42AFD30023FB7394
:102BF80044E0FA7B79681346DB0013449B000B44DE
:102C080003F2552300221A70FA7B79681346DB0019
:102C180013449B000B4403F51573FA7B1A70FA7B77
:102C280079681346DB0013449B000B4403F51673C5
:102C380000221A70FA7B79681346DB0013449B0064
:102C48000B4403F5177300221A60FA7B7968134660
:102C5800DB0013449B000B4403F5187300221A6031
:102C6800FA7B79681346DB0013449B000B4403F599
:102C7800197300221A60FB7B0133FB737B681B7995
:102C8800FA7B9A42B5D37B6818687B681A7C8DF802
:102C9800002004330ECB07F025FF0346002B05D098
:102CA8007B68022283F89524012313E07B680022C5
:102CB8005A747B68012283F895247B681B7B012B5F
:102CC80002D1786800F00AF87B681B68184608F09B
:102CD800E0F8002318461037BD4680BD80B485B0A3
:102CE80000AF78607B681B68FB607B680122C3F8D3
:102CF800D8247B68002283F8CC24FB689B6943F0C6
:102D08000062FB689A61FB685A6D054B1343FA68C9
:102D18005365002318461437BD465DF8047B704799
:102D28000300001080B584B000AF7860194BDB68F1
:102D380003F00403042B0AD0164BDB6803F00703E7
:102D48007A689A4201D001231FE000231DE0114B4D
:102D5800DB6823F007020F497B681343CB60FEF75B
:102D6800A7FFF86009E0FEF7A3FF0246FB68D31A45
:102D7800B3F57A7F01D9012307E0064B5B6803F4BA
:102D88000053B3F5005FEED1002318461037BD4657
:102D980080BD00BF0048025880B400AF054BDB6817
:102DA800044A43F08073D36000BFBD465DF8047BDE
:102DB800704700BF0048025880B586B002AF7860FF
:102DC800FEF776FFF8607B68002B01D101235FE0F6
:102DD8007B6893F84130DBB2002B07D17868FEF7A7
:102DE80077FA41F28831786800F05AF87B681B68F6
:102DF8001B6823F4F8517B689B68013B1A027B68C7
:102E08001B680A431A607B689B6C0093FB6800226E
:102E18002021786800F052F80346FB72FB7A002BF9
:102E280035D17B681B681A681B4B13407A68526857
:102E380011067A68D26811437A68D26911437A68B0
:102E4800126A11437A6812680B4313607B681B6827
:102E58005A68124B13407A68126911047A685269E9
:102E680011437A68926911437A6812680B43536078
:102E78007B681B681A687B681B6842F001021A604D
:102E88007B6800225A647B68012283F84120FB7A20
:102E980018461037BD4680BD2FFFFF00FEF8E0FF43
:102EA80080B483B000AF786039607B683A689A6410
:102EB80000BF0C37BD465DF8047B704780B584B011
:102EC80000AFF860B9603B601346FB711AE0BB695C
:102ED800B3F1FF3F16D0FEF7EBFE02463B68D31A6C
:102EE800BA699A4202D3BB69002B0BD1FB68042252
:102EF80083F84120FB685B6C43F00102FB685A646D
:102F080001230EE0FB681B689A68BB681340002B1E
:102F180014BF01230023DBB21A46FB799A42D6D1AB
:102F2800002318461037BD4680BD000080B58CB020
:102F380000AF78607B68002B02D1012300F048BC09
:102F48007B681B6803F00103002B00F08880994B15
:102F58001B6903F03803FB62964B9B6ABB62FB6AF2
:102F6800102B07D0FB6A182B11D1BB6A03F003039F
:102F7800022B0CD18F4B1B6803F40033002B6DD050
:102F88007B685B68002B69D1012300F021BC7B685A
:102F98005B68B3F5803F06D1864B1B68854A43F4CE
:102FA800803313602EE07B685B68002B0CD1814B6B
:102FB8001B68804A23F4803313607E4B1B687D4A6C
:102FC80023F4802313601DE07B685B68B3F5A02FB2
:102FD8000CD1784B1B68774A43F480231360754BF8
:102FE8001B68744A43F4803313600BE0714B1B6811
:102FF800704A23F4803313606E4B1B686D4A23F4C8
:10300800802313607B685B68002B13D0FEF750FEAB
:10301800786208E0FEF74CFE02467B6AD31A642BFE
:1030280001D90323D4E3634B1B6803F40033002B5B
:10303800F0D014E0FEF73CFE786208E0FEF738FEB8
:1030480002467B6AD31A642B01D90323C0E3594B88
:103058001B6803F40033002BF0D100E000BF7B684D
:103068001B6803F00203002B00F0CA80514B1B6958
:1030780003F038033B624F4B9B6AFB613B6A002BB2
:1030880007D03B6A182B56D1FB6903F00303002BCA
:1030980051D1484B1B6803F00403002B05D07B6813
:1030A800DB68002B01D1012392E3424B1B6823F01C
:1030B80019027B68DB683F4913430B60FEF7F8FD94
:1030C800786208E0FEF7F4FD02467B6AD31A022B09
:1030D80001D903237CE3374B1B6803F00403002B5F
:1030E800F0D0FEF715FE034641F20302934217D8CB
:1030F8007B681B69402B08D12E4B5B6823F47C331B
:103108002C4A43F4003353607AE02A4B5B6823F47B
:103118007C327B681B691B03264913434B606FE0B5
:10312800244B5B6823F0FE427B681B691B06214920
:1031380013434B6064E07B68DB68002B47D01D4B72
:103148001B6823F019027B68DB681A4913430B607C
:10315800FEF7AEFD786208E0FEF7AAFD02467B6A3C
:10316800D31A022B01D9032332E3124B1B6803F055
:103178000403002BF0D0FEF7CBFD034641F2030217
:10318800934219D87B681B69402B08D1094B5B68AF
:1031980023F47C33074A43F40033536030E0054B93
:1031A8005B6823F47C327B681B691B03014913436A
:1031B8004B6025E0004402589A4B5B6823F0FE42BE
:1031C8007B681B691B06974913434B6018E0954BB6
:1031D8001B68944A23F001031360FEF769FD7862C7
:1031E80008E0FEF765FD02467B6AD31A022B01D977
:1031F8000323EDE28B4B1B6803F00403002BF0D193
:103208007B681B6803F01003002B00F0A980854B36
:103218001B6903F03803BB61824B9B6A7B61BB6906
:10322800082B07D0BB69182B3AD17B6903F003033D
:10323800012B35D17B4B1B6803F48073002B05D021
:103248007B68DB69802B01D00123C1E2FEF760FDBA
:10325800034641F20302934217D87B681B6A202B6E
:1032680008D1704B5B6823F0F8436E4A43F0804303
:10327800536075E06B4B5B6823F0F8427B681B6A10
:103288009B06684913434B606AE0664BDB6823F092
:103298007C527B681B6A1B0662491343CB605FE064
:1032A8007B68DB69002B42D05E4B1B685D4A43F0AC
:1032B80080031360FEF7FCFC786208E0FEF7F8FC78
:1032C80002467B6AD31A022B01D9032380E2554BAD
:1032D8001B6803F48073002BF0D0FEF719FD03463A
:1032E80041F20302934217D87B681B6A202B08D14E
:1032F8004C4B5B6823F0F8434A4A43F080435360E1
:103308002EE0484B5B6823F0F8427B681B6A9B06FB
:10331800444913434B6023E0424BDB6823F07C5263
:103328007B681B6A1B063F491343CB6018E03D4B83
:103338001B683C4A23F080031360FEF7B9FC7862EF
:1033480008E0FEF7B5FC02467B6AD31A022B01D9C6
:1033580003233DE2334B1B6803F48073002BF0D149
:103368007B681B6803F00803002B36D07B685B6919
:10337800002B19D02B4B5B6F2A4A43F0010353678C
:10338800FEF796FC786208E0FEF792FC02467B6A3C
:10339800D31A022B01D903231AE2224B5B6F03F0E5
:1033A8000203002BF0D018E01E4B5B6F1D4A23F080
:1033B80001035367FEF77CFC786208E0FEF778FCAF
:1033C80002467B6AD31A022B01D9032300E2154B6C
:1033D8005B6F03F00203002BF0D17B681B6803F0DE
:1033E8002003002B39D07B689B69002B1CD00D4B28
:1033F8001B680C4A43F480531360FEF759FC78624B
:1034080008E0FEF755FC02467B6AD31A022B01D965
:103418000323DDE1034B1B6803F40053002BF0D0BA
:103428001BE000BF004402589B4B1B689A4A23F4D8
:1034380080531360FEF73CFC786208E0FEF738FC26
:1034480002467B6AD31A022B01D90323C0E1924BAF
:103458001B6803F40053002BF0D17B681B6803F052
:103468000403002B00F081808C4B1B688B4A43F4CB
:1034780080731360FEF71CFC786208E0FEF718FC06
:1034880002467B6AD31A642B01D90323A0E1834B3C
:103498001B6803F48073002BF0D07B689B68012BBA
:1034A80006D17D4B1B6F7C4A43F0010313672DE067
:1034B8007B689B68002B0CD1774B1B6F764A23F0F7
:1034C80001031367744B1B6F734A23F004031367DC
:1034D8001CE07B689B68052B0CD16F4B1B6F6E4AF9
:1034E80043F0040313676C4B1B6F6B4A43F00103F3
:1034F80013670BE0684B1B6F674A23F001031367E0
:10350800654B1B6F644A23F0040313677B689B6851
:10351800002B15D0FEF7CCFB78620AE0FEF7C8FB5B
:1035280002467B6AD31A41F28832934201D90323B7
:103538004EE1594B1B6F03F00203002BEED014E051
:10354800FEF7B6FB78620AE0FEF7B2FB02467B6A3A
:10355800D31A41F28832934201D9032338E14E4B02
:103568001B6F03F00203002BEED17B685B6A002B14
:1035780000F02D81484B1B6903F03803182B00F02D
:10358800BD807B685B6A022B40F09E80424B1B68C3
:10359800414A23F080731360FEF78AFB786208E0E3
:1035A800FEF786FB02467B6AD31A022B01D9032356
:1035B8000EE1394B1B6803F00073002BF0D1364B3A
:1035C8009A6A374B13407A68916A7A68D26A12010C
:1035D8000A43314913438B627B681B6B013BC3F37E
:1035E80008027B685B6B013B5B029BB21A437B68FA
:1035F8009B6B013B1B0403F4FE031A437B68DB6BE4
:10360800013B1B0603F0FE43234913430B63224B84
:10361800DB6A214A23F00103D3621F4B5A6B214B0B
:1036280013407A68926CD2001B4913434B631A4BC0
:10363800DB6A23F00C027B681B6C17491343CB62CF
:10364800154BDB6A23F002027B685B6C124913435B
:10365800CB62114BDB6A104A43F48033D3620E4BC2
:10366800DB6A0D4A43F40033D3620B4BDB6A0A4A28
:1036780043F48023D362084BDB6A074A43F0010313
:10368800D362054B1B68044A43F080731360FEF74E
:103698000FFB786211E000BF00440258004802584E
:1036A8000CFCFFFF0700FFFFFEF702FB02467B6AE8
:1036B800D31A022B01D903238AE0474B1B6803F076
:1036C8000073002BF0D082E0434B1B68424A23F082
:1036D80080731360FEF7ECFA786208E0FEF7E8FA08
:1036E80002467B6AD31A022B01D9032370E03A4BB6
:1036F8001B6803F00073002BF0D168E0364B9B6A1F
:103708003B61354B1B6BFB607B685B6A012B31D0DF
:103718003B6903F003027B689B6A9A422AD13B69A2
:103728001B0903F03F027B68DB6A9A4222D1FB68DF
:10373800C3F308027B681B6B013B9A421AD1FB68F2
:103748005B0A03F07F027B685B6B013B9A4211D1F5
:10375800FB681B0C03F07F027B689B6B013B9A4262
:1037680008D1FB681B0E03F07F027B68DB6B013B13
:103778009A4201D001232BE0174B5B6BDB08C3F3A4
:103788000C033B617B689B6C3A699A421FD0124BD1
:10379800DB6A114A23F00103D362FEF789FA7862E3
:1037A80000BFFEF785FA02467B6A9342F9D00A4BBE
:1037B8005A6B0A4B13407A68926CD200064913433D
:1037C8004B63054BDB6A044A43F00103D3620023D1
:1037D80018463037BD4680BD004402580700FFFF39
:1037E80080B586B000AF786039607B68002B01D166
:1037F80001239CE18A4B1B6803F00F033A689A4245
:1038080010D9874B1B6823F00F0285493B68134387
:103818000B60834B1B6803F00F033A689A4201D090
:10382800012384E17B681B6803F00403002B10D09C
:103838007B681A697B4B9B6903F070039A4208D92D
:10384800784B9B6923F070027B681B6975491343A9
:103858008B617B681B6803F00803002B10D07B6822
:103868005A69704BDB6903F070039A4208D96D4BB3
:10387800DB6923F070027B685B696A491343CB619B
:103888007B681B6803F01003002B10D07B689A69D3
:10389800644BDB6903F4E0639A4208D9614BDB6946
:1038A80023F4E0627B689B695E491343CB617B68C4
:1038B8001B6803F02003002B10D07B68DA69594B92
:1038C8001B6A03F070039A4208D9564B1B6A23F00F
:1038D80070027B68DB69534913430B627B681B6882
:1038E80003F00203002B10D07B68DA684D4B9B690C
:1038F80003F00F039A4208D94A4B9B6923F00F0241
:103908007B68DB68474913438B617B681B6803F05E
:103918000103002B55D0434B9B6923F470627B68ED
:103928009B68404913438B617B685B68022B07D116
:103938003C4B1B6803F40033002B21D10123F6E034
:103948007B685B68032B07D1364B1B6803F0007359
:10395800002B15D10123EAE07B685B68012B07D1B6
:10396800304B1B6803F48073002B09D10123DEE080
:103978002C4B1B6803F00403002B01D10123D6E074
:10398800284B1B6923F007027B685B6825491343B2
:103998000B61FEF78DF978610AE0FEF789F90246B6
:1039A8007B69D31A41F28832934201D90323BEE0DE
:1039B8001C4B1B6903F038027B685B68DB009A428A
:1039C800EBD17B681B6803F00203002B10D07B68E7
:1039D800DA68144B9B6903F00F039A4208D2114B23
:1039E8009B6923F00F027B68DB680E4913438B61E8
:1039F8000B4B1B6803F00F033A689A4214D2084B2A
:103A08001B6823F00F0206493B6813430B60044B05
:103A18001B6803F00F033A689A4205D0012386E039
:103A280000200052004402587B681B6803F004031E
:103A3800002B10D07B681A693F4B9B6903F0700319
:103A48009A4208D23C4B9B6923F070027B681B6941
:103A5800394913438B617B681B6803F00803002B0B
:103A680010D07B685A69344BDB6903F070039A42C3
:103A780008D2314BDB6923F070027B685B692E4901
:103A88001343CB617B681B6803F01003002B10D035
:103A98007B689A69284BDB6903F4E0639A4208D291
:103AA800254BDB6923F4E0627B689B692249134359
:103AB800CB617B681B6803F02003002B10D07B6868
:103AC800DA691D4B1B6A03F070039A4208D21A4B3D
:103AD8001B6A23F070027B68DB69174913430B628A
:103AE80000F034F80246144B9B691B0A03F00F03DD
:103AF8001249CB5C03F01F0322FA03F33B610E4B20
:103B08009B6903F00F030D4AD35C03F01F033A6966
:103B180022FA03F30A4A13600A4A3B6913600A4B04
:103B28001B681846FEF77AF80346FB73FB7B1846BA
:103B38001837BD4680BD00BF00440258D8AF000802
:103B480004000024000000240800002480B489B088
:103B580000AFB34B1B6903F03803182B00F25581F3
:103B680001A252F823F000BFD53B0008133E00081D
:103B7800133E0008133E0008133E0008133E0008D9
:103B8800133E0008133E0008FB3B0008133E0008E4
:103B9800133E0008133E0008133E0008133E0008B9
:103BA800133E0008133E0008013C0008133E0008BD
:103BB800133E0008133E0008133E0008133E000899
:103BC800133E0008133E0008073C0008944B1B688E
:103BD80003F02003002B09D0914B1B68DB0803F08E
:103BE8000303904A22FA03F3BB6111E18D4BBB61D9
:103BF8000EE18D4BBB610BE18C4BBB6108E1884B3F
:103C08009B6A03F003037B61854B9B6A1B0903F0E6
:103C18003F033B61824BDB6A03F00103FB60804B8F
:103C28005B6BDB08C3F30C03FA6802FB03F307EED4
:103C3800903AF8EE677AC7ED027A3B69002B00F0FC
:103C4800E1807B69022B00F083807B69022B00F204
:103C5800A1807B69002B03D07B69012B56D099E0AA
:103C68006F4B1B6803F02003002B2DD06C4B1B6897
:103C7800DB0803F003036B4A22FA03F37B607B68DB
:103C880007EE903AF8EE676A3B6907EE903AF8EE6D
:103C9800677A86EEA77A624B1B6BC3F3080307EEBD
:103CA800903AF8EE676A97ED026ADFED615AC6EE60
:103CB800257A76EEA77AF7EE006A77EEA67A67EEAF
:103CC800277AC7ED077A87E03B6907EE903AF8EE66
:103CD800677ADFED586A86EEA77A514B1B6BC3F300
:103CE800080307EE903AF8EE676A97ED026ADFED8F
:103CF800505AC6EE257A76EEA77AF7EE006A77EE86
:103D0800A67A67EE277AC7ED077A65E03B6907EE82
:103D1800903AF8EE677ADFED486A86EEA77A404B6C
:103D28001B6BC3F3080307EE903AF8EE676A97ED4A
:103D3800026ADFED3F5AC6EE257A76EEA77AF7EEED
:103D4800006A77EEA67A67EE277AC7ED077A43E02E
:103D58003B6907EE903AF8EE677ADFED386A86EE4F
:103D6800A77A2F4B1B6BC3F3080307EE903AF8EEC4
:103D7800676A97ED026ADFED2E5AC6EE257A76EE6F
:103D8800A77AF7EE006A77EEA67A67EE277AC7ED8C
:103D9800077A21E03B6907EE903AF8EE677ADFEDA3
:103DA800266A86EEA77A1E4B1B6BC3F3080307EE41
:103DB800903AF8EE676A97ED026ADFED1D5AC6EE93
:103DC800257A76EEA77AF7EE006A77EEA67A67EE9E
:103DD800277AC7ED077A00BF114B1B6B5B0A03F00C
:103DE8007F0301333B603B6807EE903AB8EE677A91
:103DF800D7ED076AC6EE877AFCEEE77A17EE903AB7
:103E0800BB6105E00023BB6102E0074BBB6100BF5B
:103E1800BB6918462437BD465DF8047B704700BF70
:103E2800004402580090D00300093D0040787D010D
:103E3800000000460024744C0024744A20BCBE4B89
:103E480080B582B000AFFFF781FE0246104B9B6938
:103E58001B0A03F00F030F49CB5C03F01F0322FA80
:103E680003F37B600A4B9B6903F00F03094AD35C99
:103E780003F01F037A6822FA03F3074A1360074A1C
:103E88007B681360044B1B6818460837BD4680BD25
:103E980000440258D8AF00080400002400000024A1
:103EA80080B500AFFFF7CCFF0246064BDB691B0964
:103EB80003F007030449CB5C03F01F0322FA03F362
:103EC800184680BD00440258D8AF000880B500AF3E
:103ED800FFF7B6FF0246064BDB691B0A03F0070330
:103EE8000449CB5C03F01F0322FA03F3184680BD94
:103EF80000440258D8AF00082DE9B04FCAB000AF4F
:103F0800C7F81401002387F82731002387F82631E2
:103F1800D7F81431D3E9002302F00064002554EAED
:103F2800050349D0D7F814319B6EB3F5401F2FD045
:103F3800B3F5401F28D8B3F5001F1AD0B3F5001FFA
:103F480022D8002B03D0B3F5801F07D01CE0B84B54
:103F5800DB6AB74A43F40033D3621AE0D7F8143166
:103F680008330221184602F061FB034687F827311F
:103F78000FE0D7F8143128330221184602F008FC64
:103F8800034687F8273104E0012387F8273100E04A
:103F980000BF97F82731002B0AD1A54B1B6D23F4DE
:103FA8004011D7F814319B6EA14A0B43136503E007
:103FB80097F8273187F82631D7F81431D3E9002349
:103FC80002F480784FF0000958EA090347D0D7F87F
:103FD80014319B6D042B2AD801A252F823F000BF9C
:103FE800FD3F00080B400008214000083F40000842
:103FF8003F4000088E4BDB6A8D4A43F40033D3629E
:104008001AE0D7F8143108330021184602F00EFBE5
:10401800034687F827310FE0D7F8143128330021F9
:10402800184602F0B5FB034687F8273104E0012360
:1040380087F8273100E000BF97F82731002B0AD115
:104048007B4B1B6D23F00701D7F814319B6D784A21
:104058000B43136503E097F8273187F82631D7F823
:104068001431D3E9002302F4007A4FF0000B5AEA26
:104078000B034CD0D7F81431DB6DB3F5807F30D00B
:10408800B3F5807F29D8C02B2DD0C02B25D8802B05
:1040980018D0802B21D8002B02D0402B07D01CE051
:1040A800634BDB6A624A43F40033D3621CE0D7F8FF
:1040B800143108330021184602F0B8FA034687F88D
:1040C800273111E0D7F8143128330021184602F0BF
:1040D8005FFB034687F8273106E0012387F827317D
:1040E80002E000BF00E000BF97F82731002B0AD19B
:1040F8004F4B1B6D23F4E071D7F81431DB6D4C4A3C
:104108000B43136503E097F8273187F82631D7F872
:104118001431D3E9002302F48063C7F8083100237F
:10412800C7F80C31D7E942120B46134353D0D7F8DE
:104138001431D3F8A830B3F5000F35D0B3F5000F1C
:104148002ED8B3F5C00F31D0B3F5C00F28D8B3F5CA
:10415800800F1AD0B3F5800F22D8002B03D0B3F507
:10416800001F07D01CE0324BDB6A314A43F40033AE
:10417800D3621CE0D7F8143108330021184602F046
:1041880055FA034687F8273111E0D7F81431283358
:104198000021184602F0FCFA034687F8273106E0AA
:1041A800012387F8273102E000BF00E000BF97F83D
:1041B8002731002B0BD11E4B9B6D23F46001D7F8E0
:1041C8001431D3F8A8301A4A0B43936503E097F8E3
:1041D800273187F82631D7F81431D3E9002302F4C0
:1041E8000063C7F800310023C7F80431D7E940124B
:1041F8000B46134356D0D7F81431D3F8AC30B3F18B
:10420800806F38D0B3F1806F31D8B3F1407F34D0AC
:10421800B3F1407F2BD8B3F1007F1DD0B3F1007FFD
:1042280025D8002B06D0B3F1807F0AD01FE000BF4D
:1042380000440258A24BDB6AA14A43F40033D3621C
:104248001CE0D7F8143108330021184602F0EEF9C3
:10425800034687F8273111E0D7F8143128330021B5
:10426800184602F095FA034687F8273106E001233D
:1042780087F8273102E000BF00E000BF97F8273138
:10428800002B0BD18E4B9B6D23F0E061D7F81431D6
:10429800D3F8AC308A4A0B43936503E097F827318B
:1042A80087F82631D7F81431D3E9002302F00073D8
:1042B800C7F8F8300023C7F8FC30D7E93E120B46A0
:1042C80013433AD0D7F81431DB6C302B1FD0302B86
:1042D80019D8202B0CD0202B15D8002B19D0102B37
:1042E80011D1774BDB6A764A43F40033D36211E08D
:1042F800D7F8143108330221184602F097F903461B
:1043080087F8273106E0012387F8273102E000BF4C
:1043180000E000BF97F82731002B0AD1684BDB6C0F
:1043280023F03001D7F81431DB6C654A0B43D364B2
:1043380003E097F8273187F82631D7F81431D3E905
:10434800002302F48053C7F8F0300023C7F8F43094
:10435800D7E93C120B46134351D0D7F814311B6EE2
:10436800B3F5804F35D0B3F5804F2ED8B3F5405F05
:1043780031D0B3F5405F28D8B3F5005F1AD0B3F554
:10438800005F22D8002B03D0B3F5805F07D01CE074
:104398004B4BDB6A4A4A43F40033D3621CE0D7F83C
:1043A800143108330021184602F040F9034687F813
:1043B800273111E0D7F8143128330021184602F0CC
:1043C800E7F9034687F8273106E0012387F8273104
:1043D80002E000BF00E000BF97F82731002B0AD1A8
:1043E800374B1B6D23F4E041D7F814311B6E344A68
:1043F8000B43136503E097F8273187F82631D7F880
:104408001431D3E9002302F40053C7F8E83000233D
:10441800C7F8EC30D7E93A120B46134356D0D7F811
:1044280014315B6EB3F5A02F33D0B3F5A02F2CD881
:10443800B3F5802F2FD0B3F5802F26D8B3F5403FA2
:104448002BD0B3F5403F20D8B3F5003F12D0B3F5D9
:10445800003F1AD8002B22D0B3F5803F15D1D7F8EA
:10446800143108330121184602F0E0F8034687F8B2
:10447800273115E0D7F8143128330121184602F006
:1044880087F9034687F827310AE0012387F827319F
:1044980006E000BF04E000BF02E000BF00E000BF8C
:1044A80097F82731002B0DD1054B1B6D23F4E02124
:1044B800D7F814315B6E024A0B43136506E000BF60
:1044C8000044025897F8273187F82631D7F8143175
:1044D800D3E9002302F48043C7F8E0300023C7F88B
:1044E800E430D7E938120B46134355D0D7F81431C6
:1044F800D3F8B030B3F1A04F33D0B3F1A04F2CD8DC
:10450800B3F1804F2FD0B3F1804F26D8B3F1405F7D
:104518002BD0B3F1405F20D8B3F1005F12D0B3F1D4
:10452800005F1AD8002B22D0B3F1805F15D1D7F8DD
:10453800143108330121184602F078F8034687F849
:10454800273115E0D7F8143128330121184602F035
:104558001FF9034687F827310AE0012387F8273136
:1045680006E000BF04E000BF02E000BF00E000BFBB
:1045780097F82731002B0BD1A34B9B6D23F0E0411B
:10458800D7F81431D3F8B0309F4A0B43936503E052
:1045980097F8273187F82631D7F81431D3E9002363
:1045A80002F40043C7F8D8300023C7F8DC30D7E955
:1045B80036120B46134337D0D7F814311B6FB3F1BB
:1045C800005F0ED0B3F1005F16D8002B18D0B3F1FE
:1045D800805F11D18C4BDB6A8B4A43F40033D36282
:1045E8000FE0D7F8143108330121184602F01EF8FD
:1045F800034687F8273104E0012387F8273100E0D4
:1046080000BF97F82731002B0AD17F4B1B6D23F091
:104618004051D7F814311B6F7B4A0B43136503E0F5
:1046280097F8273187F82631D7F81431D3E90023D2
:1046380002F08073C7F8D0300023C7F8D430D7E928
:1046480034120B46134339D0D7F814319B6C032B23
:104658001CD801A252F823F09D46000871460008B4
:104668007F4600089D460008674BDB6A664A43F4AC
:104678000033D3620FE0D7F814310833022118460B
:1046880001F0D4FF034687F8273104E0012387F8B7
:10469800273100E000BF97F82731002B0AD15A4B89
:1046A800DB6C23F00301D7F814319B6C564A0B439B
:1046B800D36403E097F8273187F82631D7F8143107
:1046C800D3E9002302F48003C7F8C8300023C7F8F1
:1046D800CC30D7E932120B46134300F09F804B4B86
:1046E8001B684A4A43F480731360FDF7E1FAC7F880
:1046F80020010BE0FDF7DCFA0246D7F82031D31A87
:10470800642B03D9032387F8273105E03F4B1B6847
:1047180003F48073002BEDD097F82731002B79D163
:10472800394B1A6FD7F81431D3F8B430534003F427
:104738004073002B15D0344B1B6F23F44073C7F81C
:104748001C31314B1B6F304A43F4803313672E4BB7
:104758001B6F2D4A23F4803313672B4AD7F81C317B
:104768001367D7F81431D3F8B430B3F5807F18D174
:10477800FDF79EFAC7F820010DE0FDF799FA024609
:10478800D7F82031D21A41F288339A4203D9032349
:1047980087F8273105E01C4B1B6F03F00203002B41
:1047A800EBD097F82731002B29D1D7F81431D3F85B
:1047B800B43003F44073B3F5407F0ED1124B1B693C
:1047C80023F47C51D7F81431D3F8B4301A09104BBC
:1047D80013400D4A0B43136105E00B4B1B690A4A52
:1047E80023F47C531361084B196FD7F81431D3F8AD
:1047F800B430C3F30B03044A0B4313670EE097F876
:10480800273187F8263109E0004402580048025849
:10481800CFFFFF0097F8273187F82631D7F81431F2
:10482800D3E9002302F00103C7F8C0300023C7F81A
:10483800C430D7E930120B46134300F08980D7F80B
:104848001431DB6F282B6BD801A252F823F000BF7C
:104858003149000829490008294900082949000860
:104868002949000829490008294900082949000858
:10487800FD48000829490008294900082949000875
:104888002949000829490008294900082949000838
:10489800134900082949000829490008294900083E
:1048A8002949000829490008294900082949000818
:1048B8003149000829490008294900082949000800
:1048C80029490008294900082949000829490008F8
:1048D80031490008294900082949000829490008E0
:1048E80029490008294900082949000829490008D8
:1048F80031490008D7F8143108330121184601F06E
:1049080095FE034687F827310FE0D7F8143128338E
:104918000121184601F03CFF034687F8273104E0DF
:10492800012387F8273100E000BF97F82731002BD3
:104938000AD1BF4B5B6D23F03801D7F81431DB6F18
:10494800BB4A0B43536503E097F8273187F82631B4
:10495800D7F81431D3E9002302F00203C7F8B830BE
:104968000023C7F8BC30D7E92E120B46134341D0B9
:10497800D7F814319B6F052B24D801A252F823F0E5
:10498800D5490008A1490008B7490008D5490008D9
:10499800D5490008D5490008D7F814310833012152
:1049A800184601F043FE034687F827310FE0D7F891
:1049B800143128330121184601F0EAFE034687F82E
:1049C800273104E0012387F8273100E000BF97F87A
:1049D8002731002B0AD1964B5B6D23F00701D7F8DE
:1049E80014319B6F924A0B43536503E097F82731C4
:1049F80087F82631D7F81431D3E9002302F00403ED
:104A0800C7F8B0300023C7F8B430D7E92C120B46EA
:104A1800134344D0D7F81431D3F89430052B25D854
:104A280001A252F823F000BF7D4A0008494A000855
:104A38005F4A00087D4A00087D4A00087D4A000850
:104A4800D7F8143108330121184601F0EFFD034669
:104A580087F827310FE0D7F8143128330121184699
:104A680001F096FE034687F8273104E0012387F812
:104A7800273100E000BF97F82731002B0BD16C4B92
:104A88009B6D23F00701D7F81431D3F89430684AA6
:104A98000B43936503E097F8273187F82631D7F859
:104AA8001431D3E9002302F02003C7F8A83000230B
:104AB800C7F8AC30D7E92A120B46134355D0D7F8BC
:104AC8001431D3F89030B3F1A04F33D0B3F1A04FE5
:104AD8002CD8B3F1804F2FD0B3F1804F26D8B3F143
:104AE800405F2BD0B3F1405F20D8B3F1005F12D004
:104AF800B3F1005F1AD8002B22D0B3F1805F15D133
:104B0800D7F8143108330021184601F08FFD034609
:104B180087F8273115E0D7F81431283302211846D1
:104B280001F036FE034687F827310AE0012387F8AB
:104B3800273106E000BF04E000BF02E000BF00E04C
:104B480000BF97F82731002B0BD1394B5B6D23F051
:104B5800E041D7F81431D3F89030354A0B43536508
:104B680003E097F8273187F82631D7F81431D3E9CD
:104B7800002302F04003C7F8A0300023C7F8A43090
:104B8800D7E928120B46134358D0D7F81431D3F875
:104B98009C30B3F5A05F33D0B3F5A05F2CD8B3F544
:104BA800805F2FD0B3F5805F26D8B3F5406F2BD048
:104BB800B3F5406F20D8B3F5006F12D0B3F5006F8E
:104BC8001AD8002B22D0B3F5806F15D1D7F814313D
:104BD80008330021184601F029FD034687F82731DC
:104BE80015E0D7F8143128330221184601F0D0FD1A
:104BF800034687F827310AE0012387F8273106E0C2
:104C080000BF04E000BF02E000BF00E000BF97F86B
:104C18002731002B0ED1064B9B6D23F4E051D7F8BA
:104C28001431D3F89C30024A0B43936506E000BF69
:104C38000044025897F8273187F82631D7F81431FD
:104C4800D3E9002302F08003C7F898300023C7F89F
:104C58009C30D7E926120B46134355D0D7F81431A8
:104C6800D3F8A030B3F5204F33D0B3F5204F2CD86C
:104C7800B3F5004F2FD0B3F5004F26D8B3F5C04F8A
:104C88002BD0B3F5C04F20D8B3F5804F12D0B3F571
:104C9800804F1AD8002B22D0B3F5005F15D1D7F872
:104CA800143108330021184601F0C0FC034687F888
:104CB800273115E0D7F8143128330221184601F0BE
:104CC80067FD034687F827310AE0012387F8273173
:104CD80006E000BF04E000BF02E000BF00E000BF44
:104CE80097F82731002B0BD1A14B9B6D23F4604122
:104CF800D7F81431D3F8A0309D4A0B43936503E0ED
:104D080097F8273187F82631D7F81431D3E90023EB
:104D180002F00803C7F890300023C7F89430D7E9A9
:104D280024120B4613431ED0D7F81431D3F884301D
:104D3800B3F5805F0CD1D7F8143128330221184617
:104D480001F026FD0346002B02D0012387F8263107
:104D5800874B5B6D23F44051D7F81431D3F8843076
:104D6800834A0B435365D7F81431D3E9002302F083
:104D78001003C7F888300023C7F88C30D7E922120F
:104D88000B4613431ED0D7F81431D3F89830B3F537
:104D9800807F0CD1D7F8143128330221184601F04E
:104DA800F7FC0346002B02D0012387F82631704B0D
:104DB8009B6D23F44071D7F81431D3F898306C4ABE
:104DC8000B439365D7F81431D3E9002302F4002389
:104DD800C7F880300023C7F88430D7E920120B4683
:104DE80013433ED0D7F81431D3F8A430B3F5003FBD
:104DF80022D0B3F5003F1BD8002B03D0B3F5803F7A
:104E08000BD015E0D7F8143108330021184601F00B
:104E18000DFC034687F827310FE0D7F81431283303
:104E28000221184601F0B4FC034687F8273104E054
:104E3800012387F8273100E000BF97F82731002BBE
:104E48000BD14B4B9B6D23F44031D7F81431D3F879
:104E5800A430474A0B43936503E097F8273187F856
:104E68002631D7F81431D3E9002302F48023BB6735
:104E78000023FB67D7E91E120B4613433BD0D7F834
:104E88001431D3F88830B3F5401F1FD0B3F5401F55
:104E980018D8B3F5801F03D0B3F5001F07D011E071
:104EA800334BDB6A324A43F40033D3620FE0D7F85E
:104EB800143128330121184601F06AFC034687F8AB
:104EC800273104E0012387F8273100E000BF97F875
:104ED8002731002B0BD1264B5B6D23F44011D7F8FB
:104EE8001431D3F88830224A0B43536503E097F80E
:104EF800273187F82631D7F81431D3E9002302F493
:104F080080333B6700237B67D7E91C120B461343AA
:104F180034D0D7F814311B6D002B03D0B3F5803F84
:104F280007D011E0124BDB6A114A43F40033D36215
:104F38000EE0D7F8143108330221184601F076FB49
:104F4800034687F8273103E0012387F8273100BF9C
:104F580097F82731002B0DD1054BDB6C23F48031FA
:104F6800D7F814311B6D024A0B43D36406E000BF27
:104F78000044025897F8273187F82631D7F81431BA
:104F8800D3E9002302F00053BB660023FB66D7E990
:104F98001A120B4613430CD0D7F8143128330221C8
:104FA800184601F0F5FB0346002B02D0012387F8D1
:104FB8002631D7F81431D3E9002302F400333B66D5
:104FC80000237B66D7E918120B46134338D0D7F86D
:104FD8001431D3F88030B3F5407F18D0B3F5407F53
:104FE80011D8B3F5007F14D0B3F5007F0BD8002B90
:104FF80011D0B3F5807F06D1C34BDB6AC24A43F4B4
:105008000033D36208E0012387F8273104E000BFAA
:1050180002E000BF00E000BF97F82731002B0BD15A
:10502800B94B5B6D23F44071D7F81431D3F8803055
:10503800B54A0B43536503E097F8273187F82631C3
:10504800D7F81431D3E9002302F48013BB65002399
:10505800FB65D7E916120B46134309D0AA4B1B6D03
:1050680023F00041D7F814315B6FA74A0B4313654F
:10507800D7F81431D3E9002302F080533B650023AD
:105088007B65D7E914120B4613430AD09E4B1B6964
:1050980023F48041D7F81431D3F8B8309A4A0B4337
:1050A8001361D7F81431D3E9002302F40013BB6469
:1050B8000023FB64D7E912120B46134309D0924B25
:1050C8001B6D23F08071D7F81431DB6E8E4A0B43C9
:1050D8001365D7F81431D3E9002302F080433B6409
:1050E80000237B64D7E910120B4613430ED0864B7E
:1050F8001B69854A23F400431361834B1969D7F868
:105108001431D3F8BC30804A0B431361D7F81431FB
:10511800D3E9002302F00043BB630023FB63D7E914
:105128000E120B46134309D0774BDB6C23F040512A
:10513800D7F814315B6D744A0B43D364D7F8143134
:10514800D3E9002302F400033B6300237B63D7E920
:105158000C120B4613430AD06B4B5B6D23F44001D2
:10516800D7F81431D3F88C30674A0B435365D7F816
:105178001431D3E900230021B96203F00103FB6273
:10518800D7E90A120B46134311D0D7F81431083364
:105198000021184601F04AFA034687F8273197F8A4
:1051A8002731002B03D097F8273187F82631D7F815
:1051B8001431D3E900230021396203F002037B6232
:1051C800D7E908120B46134311D0D7F81431083326
:1051D8000121184601F02AFA034687F8273197F883
:1051E8002731002B03D097F8273187F82631D7F8D5
:1051F8001431D3E900230021B96103F00403FB61F2
:10520800D7E906120B46134311D0D7F814310833E7
:105218000221184601F00AFA034687F8273197F861
:105228002731002B03D097F8273187F82631D7F894
:105238001431D3E900230021396103F008037B61AD
:10524800D7E904120B46134311D0D7F81431283389
:105258000021184601F09CFA034687F8273197F891
:105268002731002B03D097F8273187F82631D7F854
:105278001431D3E900230021B96003F01003FB6067
:10528800D7E902120B46134311D0D7F8143128334B
:105298000121184601F07CFA034687F8273197F870
:1052A8002731002B03D097F8273187F82631D7F814
:1052B8001431D3E900230021396003F020037B6017
:1052C800D7E900120B46134311D0D7F8143128330D
:1052D8000221184601F05CFA034687F8273197F84F
:1052E8002731002B03D097F8273187F8263197F814
:1052F8002631002B01D1002300E00123184607F5D1
:105308009477BD46BDE8B08F0044025880B590B090
:1053180000AFC7E90001D7E90023A2F580710B436C
:1053280040F094809E4B1B6D03F007033B633B6B7F
:10533800042B00F2878001A252F823F05953000889
:1053480081530008A953000845540008D1530008A8
:10535800934B1B6803F00073B3F1007F08D107F18A
:105368002403184601F010F8BB6AFB6300F045BD42
:105378000023FB6300F041BD894B1B6803F0006309
:10538800B3F1006F08D107F11803184600F054FD77
:10539800BB69FB6300F031BD0023FB6300F02DBD4A
:1053A8007F4B1B6803F00053B3F1005F08D107F18E
:1053B8000C03184600F094FEFB68FB6300F01DBD6B
:1053C8000023FB6300F019BD754BDB6C03F0405301
:1053D8007B63734B1B6803F00403042B0CD17B6BBA
:1053E800002B09D16E4B1B68DB0803F003036D4AE1
:1053F80022FA03F3FB631FE0694B1B6803F4807315
:10540800B3F5807F06D17B6BB3F1805F02D1664B29
:10541800FB6311E0624B1B6803F40033B3F5003FF4
:1054280006D17B6BB3F1005F02D1604BFB6303E0F5
:105438000023FB6300F0E1BC00F0DFBC5C4BFB63C6
:1054480000F0DBBC0023FB6300F0D7BCD7E90023E6
:10545800A2F500710B4340F0AD80514B1B6D03F476
:10546800E0733B633B6BB3F5807F56D03B6BB3F582
:10547800807F00F290803B6BC02B00F088803B6BF4
:10548800C02B00F288803B6B802B32D03B6B802B8B
:1054980000F281803B6B002B03D03B6B402B14D078
:1054A80079E03F4B1B6803F00073B3F1007F08D12C
:1054B80007F12403184600F067FFBB6AFB6300F09E
:1054C8009CBC0023FB6300F098BC354B1B6803F0C1
:1054D8000063B3F1006F08D107F11803184600F014
:1054E800ABFCBB69FB6300F088BC0023FB6300F0E6
:1054F80084BC2B4B1B6803F00053B3F1005F08D149
:1055080007F10C03184600F0EBFDFB68FB6300F0A5
:1055180074BC0023FB6300F070BC214BDB6C03F010
:1055280040537B631E4B1B6803F00403042B0CD110
:105538007B6B002B09D11A4B1B68DB0803F00303B4
:10554800184A22FA03F3FB631FE0154B1B6803F4A8
:105558008073B3F5807F06D17B6BB3F1805F02D196
:10556800114BFB6311E00E4B1B6803F40033B3F5DA
:10557800003F06D17B6BB3F1005F02D10B4BFB639D
:1055880003E00023FB6300F038BC00F036BC084B96
:10559800FB6300F032BC0023FB6300F02EBC00BFAD
:1055A800004402580090D00300093D0040787D0176
:1055B8000080BB00D7E90023A2F580610B4340F0CF
:1055C8009C809E4B9B6D03F460033B633B6BB3F580
:1055D800000F54D03B6BB3F5000F00F28B803B6B90
:1055E800B3F5C00F00F083803B6BB3F5C00F00F23A
:1055F80081803B6BB3F5800F2FD03B6BB3F5800FE9
:1056080078D83B6B002B04D03B6BB3F5001F12D04E
:1056180070E08A4B1B6803F00073B3F1007F07D179
:1056280007F12403184600F0AFFEBB6AFB63E4E30E
:105638000023FB63E1E3814B1B6803F00063B3F1D4
:10564800006F07D107F11803184600F0F5FBBB6996
:10565800FB63D2E30023FB63CFE3784B1B6803F0C3
:105668000053B3F1005F07D107F10C03184600F0AF
:1056780037FDFB68FB63C0E30023FB63BDE36F4BAF
:10568800DB6C03F040537B636C4B1B6803F0040333
:10569800042B0CD17B6B002B09D1684B1B68DB08F2
:1056A80003F00303664A22FA03F3FB631EE0634B2D
:1056B8001B6803F48073B3F5807F06D17B6BB3F16D
:1056C800805F02D15F4BFB6310E05C4B1B6803F407
:1056D8000033B3F5003F06D17B6BB3F1005F02D115
:1056E800594BFB6302E00023FB6386E385E3574BDA
:1056F800FB6382E30023FB637FE3D7E90023A2F582
:1057080000610B4340F0A7804C4B9B6D03F0E063B6
:105718003B633B6BB3F1806F55D03B6BB3F1806F4C
:1057280000F296803B6BB3F1407F00F084803B6BC6
:10573800B3F1407F00F28C803B6BB3F1007F30D037
:105748003B6BB3F1007F00F283803B6B002B04D0EE
:105758003B6BB3F1807F12D07AE0384B1B6803F0C3
:105768000073B3F1007F07D107F12403184600F056
:105778000BFEBB6AFB6340E30023FB633DE32F4B57
:105788001B6803F00063B3F1006F07D107F118033A
:10579800184600F051FBBB69FB632EE30023FB6353
:1057A8002BE3264B1B6803F00053B3F1005F07D1CE
:1057B80007F10C03184600F093FCFB68FB631CE33D
:1057C8000023FB6319E31D4BDB6C03F040537B6341
:1057D8001A4B1B6803F00403042B0CD17B6B002BC2
:1057E80009D1164B1B68DB0803F00303144A22FA9D
:1057F80003F3FB631EE0114B1B6803F48073B3F5DE
:10580800807F06D17B6BB3F1805F02D10D4BFB63C8
:1058180010E00A4B1B6803F40033B3F5003F06D1D0
:105828007B6BB3F1005F02D1074BFB6302E00023FF
:10583800FB63E2E2E1E2054BFB63DEE2004402586F
:105848000090D00300093D0040787D010080BB0036
:105858000023FB63D1E2D7E90023A2F580510B4373
:1058680040F09C80934B1B6D03F4E043BB63BB6B20
:10587800B3F5804F54D0BB6BB3F5804F00F28B80EB
:10588800BB6BB3F5405F00F08380BB6BB3F5405F43
:1058980000F28180BB6BB3F5005F2FD0BB6BB3F513
:1058A800005F78D8BB6B002B04D0BB6BB3F5805F6F
:1058B80012D070E07F4B1B6803F00073B3F1007FD8
:1058C80007D107F12403184600F05EFDBB6AFB63AD
:1058D80093E20023FB6390E2764B1B6803F00063BE
:1058E800B3F1006F07D107F11803184600F0A4FAC6
:1058F800BB69FB6381E20023FB637EE26D4B1B689F
:1059080003F00053B3F1005F07D107F10C03184609
:1059180000F0E6FBFB68FB636FE20023FB636CE2CD
:10592800644BDB6C03F040537B63624B1B6803F0F2
:105938000403042B0CD17B6B002B09D15D4B1B6836
:10594800DB0803F003035C4A22FA03F3FB631EE05F
:10595800584B1B6803F48073B3F5807F06D17B6BCB
:10596800B3F1805F02D1554BFB6310E0514B1B68CC
:1059780003F40033B3F5003F06D17B6BB3F1005F4E
:1059880002D14F4BFB6302E00023FB6335E234E2B4
:105998004C4BFB6331E20023FB632EE2D7E9002383
:1059A800A2F500510B4340F08F80424B1B6D03F46E
:1059B800E023BB63BB6BB3F5A02F6BD0BB6BB3F518
:1059C800A02F74D8BB6BB3F5802F56D0BB6BB3F543
:1059D800802F6CD8BB6BB3F5403F3BD0BB6BB3F5A6
:1059E800403F64D8BB6BB3F5003F21D0BB6BB3F528
:1059F800003F5CD8BB6B002B04D0BB6BB3F5803F7A
:105A080004D054E0FEF74CFAF863F6E1294B1B6822
:105A180003F00063B3F1006F07D107F118031846CC
:105A280000F00AFAFB69FB63E7E10023FB63E4E1AA
:105A3800204B1B6803F00053B3F1005F07D107F157
:105A48000C03184600F04CFB3B69FB63D5E10023CF
:105A5800FB63D2E1174B1B6803F00403042B09D145
:105A6800144B1B68DB0803F00303134A22FA03F301
:105A7800FB63C2E10023FB63BFE10E4B1B6803F429
:105A88008073B3F5807F02D10C4BFB63B5E1002333
:105A9800FB63B2E1074B1B6803F40033B3F5003F27
:105AA80002D1074BFB63A8E10023FB63A5E10023B8
:105AB800FB63A2E1004402580090D00300093D00B6
:105AC80040787D010080BB00D7E90023A2F50021C2
